:020000041200E8
:100000003DB8F3960000000000020000C0050D009E
:1000100000000000000000000000000000000000E0
:10002000FFFFFFFFFFFFFFFFFFFFFFFFFFFFFFFFE0
:10003000FFFFFFFFFFFFFFFFFFFFFFFFFFFFFFFFD0
:10004000FFFFFFFFFFFFFFFFFFFFFFFFFFFFFFFFC0
:10005000FFFFFFFFFFFFFFFFFFFFFFFFFFFFFFFFB0
:10006000FFFFFFFFFFFFFFFFFFFFFFFFFFFFFFFFA0
:10007000FFFFFFFFFFFFFFFFFFFFFFFFFFFFFFFF90
:10008000FFFFFFFFFFFFFFFFFFFFFFFFFFFFFFFF80
:10009000FFFFFFFFFFFFFFFFFFFFFFFFFFFFFFFF70
:1000A000FFFFFFFFFFFFFFFFFFFFFFFFFFFFFFFF60
:1000B000FFFFFFFFFFFFFFFFFFFFFFFFFFFFFFFF50
:1000C000FFFFFFFFFFFFFFFFFFFFFFFFFFFFFFFF40
:1000D000FFFFFFFFFFFFFFFFFFFFFFFFFFFFFFFF30
:1000E000FFFFFFFFFFFFFFFFFFFFFFFFFFFFFFFF20
:1000F000FFFFFFFFFFFFFFFFFFFFFFFFFFFFFFFF10
:10010000FFFFFFFFFFFFFFFFFFFFFFFFFFFFFFFFFF
:10011000FFFFFFFFFFFFFFFFFFFFFFFFFFFFFFFFEF
:10012000FFFFFFFFFFFFFFFFFFFFFFFFFFFFFFFFDF
:10013000FFFFFFFFFFFFFFFFFFFFFFFFFFFFFFFFCF
:10014000FFFFFFFFFFFFFFFFFFFFFFFFFFFFFFFFBF
:10015000FFFFFFFFFFFFFFFFFFFFFFFFFFFFFFFFAF
:10016000FFFFFFFFFFFFFFFFFFFFFFFFFFFFFFFF9F
:10017000FFFFFFFFFFFFFFFFFFFFFFFFFFFFFFFF8F
:10018000FFFFFFFFFFFFFFFFFFFFFFFFFFFFFFFF7F
:10019000FFFFFFFFFFFFFFFFFFFFFFFFFFFFFFFF6F
:1001A000FFFFFFFFFFFFFFFFFFFFFFFFFFFFFFFF5F
:1001B000FFFFFFFFFFFFFFFFFFFFFFFFFFFFFFFF4F
:1001C000FFFFFFFFFFFFFFFFFFFFFFFFFFFFFFFF3F
:1001D000FFFFFFFFFFFFFFFFFFFFFFFFFFFFFFFF2F
:1001E000FFFFFFFFFFFFFFFFFFFFFFFFFFFFFFFF1F
:1001F000FFFFFFFFFFFFFFFFFFFFFFFFFFFFFFFF0F
:1002000000B0022091D002005BF9080065D0020026
:1002100065D0020065D0020065D002000000000039
:10022000000000000000000000000000F5C902000E
:1002300065D002000000000061C9020065D0020024
:1002400081CB02003138090081CB020081CB020052
:1002500081CB020081CB020081CB020081CB020066
:10026000F937090081CB020081CB02001738090061
:1002700081CB020081CB020081CB020081CB020046
:1002800081CB020081CB020081CB020081CB020036
:1002900081CB020081CB020081CB020081CB020026
:1002A00081CB020081CB020081CB020081CB020016
:1002B00081CB020081CB020081CB020081CB020006
:1002C00081CB020081CB020081CB020081CB0200F6
:1002D00081CB020081CB020081CB020081CB0200E6
:1002E00081CB020081CB020081CB020081CB0200D6
:1002F00081CB020081CB020081CB020081CB0200C6
:1003000001F0FF01102A2BDB10F0070F08D010F8C6
:10031000013B013A8B422DD010F0070F42B3F6D1CA
:10032000F0B441EA012141EA014122F007047FF0E3
:1003300000070023F0E80256083C85EA010586EA3A
:10034000010685FA47F5A3FA87F586FA47F6A5FA76
:1003500087F68EB9EED1F0BC01F0FF0102F0070282
:1003600032B110F8013B013A83EA010313B1F8D12D
:100370000020704701387047002D06BF354603380E
:10038000073815F0010F07D1013015F4807F02BF47
:10039000013015F4C03F0130F0BC0138704700BF98
:1003A00081F0004102E000BF83F0004330B54FEA26
:1003B00041044FEA430594EA050F08BF90EA020F93
:1003C0001FBF54EA000C55EA020C7FEA645C7FEA26
:1003D000655C00F0E2804FEA5454D4EB5555B8BF49
:1003E0006D420CDD2C4480EA020281EA030382EABA
:1003F000000083EA010180EA020281EA0303362D4C
:1004000088BF30BD11F0004F4FEA01314FF4801C1E
:100410004CEA113102D0404261EB410113F0004F30
:100420004FEA03334CEA133302D0524263EB4303E7
:1004300094EA050F00F0A780A4F10104D5F1200E85
:100440000DDB02FA0EFC22FA05F2801841F10001E0
:1004500003FA0EF2801843FA05F359410EE0A5F1B4
:1004600020050EF1200E012A03FA0EFC28BF4CF0E5
:10047000020C43FA05F3C01851EBE37101F000459B
:1004800007D54FF0000EDCF1000C7EEB00006EEBA8
:100490000101B1F5801F1BD3B1F5001F0CD3490832
:1004A0005FEA30004FEA3C0C04F101044FEA445289
:1004B00012F5800F80F09A80BCF1004F08BF5FEA10
:1004C000500C50F1000041EB045141EA050130BDF0
:1004D0005FEA4C0C404141EB0101013C28BFB1F502
:1004E000801FE9D291F0000F04BF01460020B1FA4D
:1004F00081F308BF2033A3F10B03B3F120020CDA20
:100500000C3208DD02F1140CC2F10C0201FA0CF0FD
:1005100021FA02F10CE002F11402D8BFC2F1200C62
:1005200001FA02F120FA0CFCDCBF41EA0C01904018
:10053000E41AA2BF01EB0451294330BD6FEA040461
:100540001F3C1CDA0C340EDC04F11404C4F120024C
:1005500020FA04F001FA02F340EA030021FA04F35E
:1005600045EA030130BDC4F10C04C4F1200220FAB5
:1005700002F001FA04F340EA0300294630BD21FAF3
:1005800004F0294630BD94F0000F83F4801306BFB9
:1005900081F480110134013D4EE77FEA645C18BFAD
:1005A0007FEA655C29D094EA050F08BF90EA020F44
:1005B00005D054EA000C04BF1946104630BD91EA3C
:1005C000030F1EBF0021002030BD5FEA545C05D13F
:1005D0004000494128BF41F0004130BD14F580047E
:1005E0003CBF01F5801130BD01F0004545F0FE41F2
:1005F00041F470014FF0000030BD7FEA645C1ABF27
:10060000194610467FEA655C1CBF0B46024650EA5D
:10061000013406BF52EA033591EA030F41F4002189
:1006200030BD00BF90F0000F04BF0021704730B50F
:100630004FF4806404F132044FF000054FF00001E4
:1006400050E700BF90F0000F04BF0021704730B5A5
:100650004FF4806404F1320410F0004548BF40427A
:100660004FF000013EE700BF42004FEAE2014FEACF
:1006700031014FEA02701FBF12F07F4393F07F4FAA
:1006800081F06051704732F07F4208BF704793F0AD
:100690007F4F04BF41F40021704730B54FF46074C0
:1006A00001F0004521F000411CE700BF50EA0102C3
:1006B00008BF704730B54FF000050AE050EA01026C
:1006C00008BF704730B511F0004502D5404261EBDC
:1006D00041014FF4806404F132045FEA915C3FF41D
:1006E000D8AE4FF003025FEADC0C18BF03325FEABA
:1006F000DC0C18BF033202EBDC02C2F1200300FA6B
:1007000003FC20FA02F001FA03FE40EA0E0021FA8F
:1007100002F11444BDE600BF4FF0FF3C06E000BF0D
:100720004FF0010C02E000BF4FF0010C4DF804CD7A
:100730004FEA410C7FEA6C5C4FEA430C18BF7FEA3A
:100740006C5C1BD001B050EA410C0CBF52EA430C68
:1007500091EA030F02BF90EA020F0020704710F1E8
:10076000000F91EA030F58BF994208BF90422CBF77
:10077000D8176FEAE37040F0010070474FEA410C70
:100780007FEA6C5C02D150EA013C07D14FEA430C8E
:100790007FEA6C5CD6D152EA033CD3D05DF8040BFF
:1007A000704700BF8446104662468C461946634631
:1007B00000E000BF01B5FFF7B7FF002848BF10F108
:1007C000000F01BD4DF808EDFFF7F4FF0CBF01204D
:1007D00000205DF808FB00BF4DF808EDFFF7EAFFC9
:1007E00034BF012000205DF808FB00BF4DF808ED84
:1007F000FFF7E0FF94BF012000205DF808FB00BF79
:100800004DF808EDFFF7CEFF94BF012000205DF802
:1008100008FB00BF4DF808EDFFF7C4FF34BF01200F
:1008200000205DF808FB00BF7BB972B90029BEBF8C
:1008300000204FF0004106E008BF00281CBF6FF009
:1008400000414FF0FF3000F057B8ADF1080C6DE9F2
:1008500004CE002909DB002B1ADB0DF029F8DDF8A6
:1008600004E0DDE9022304B07047404261EB41013E
:10087000002B1BDB0DF01CF8DDF804E0DDE90223A2
:1008800004B0404261EB4101524263EB43037047C5
:10089000524263EB43030DF00BF8DDF804E0DDE9B1
:1008A000022304B0404261EB41017047524263EBC6
:1008B00043030CF0FDFFDDF804E0DDE9022304B0A2
:1008C000524263EB4303704753B94AB9002908BF4A
:1008D00000281CBF4FF0FF314FF0FF3000F00CB884
:1008E000ADF1080C6DE904CE0CF0E2FFDDF804E098
:1008F000DDE9022304B07047704700BF014800786B
:10090000704700002800002070B5174C6078002860
:1009100023D1012060700DF0BEFC6FF0270528B9CF
:100920000DF0EFFC10B90DF0F6FC20B10F4860603F
:10093000A570082010E00DF083FC40B90DF08AFC92
:1009400028B90DF09EFC10B90DF0AFFC30B107488E
:1009500031306060A5700420E07070BD4FF48F717D
:10096000742003F00BFC0000280000200896010012
:10097000084991F90320904203DA91F9022090424C
:1009800001DC104670474968801A085C0249085625
:100990007047000028000020FA9501002DE9F04181
:1009A0001C4690460D4606466FF01507042804D8ED
:1009B0001CB10DF0DFF8A84202D83846BDE8F0813E
:1009C0000548424650F8260018B14057824200DDE3
:1009D000024622700020F1E720160020002819D0DE
:1009E00003781349134A13B1012B0ED011E0037998
:1009F000012B00D06BB943790BB1012B09D183686E
:100A0000643B8B4205D2C0680EE00379012B02D013
:100A10000BB10020704743790BB1012BF9D1C368AA
:100A2000643B8B42F5D280689042F2D80120704737
:100A30003D860100FF3F420F10B5054C206810B104
:100A4000804700202060BDE8104002F0A7B80000F9
:100A5000300000202DE9F0410E46050004D000F0E2
:100A600047F8074600240BE06FF01500BDE8F08161
:100A7000204600F043F890F8260030B1641CE4B240
:100A8000BC42F5D36FF00B00F0E72746FF2CF9D0FE
:100A9000204600F033F804460DF038FA84F8287048
:100AA0002146084802F052F884F82700202806D092
:100AB0000120256284F8260037700020D6E76FF009
:100AC0002200D3E7374C010010B5820702D06FF047
:100AD0000D0010BD054A1170506028B101EB4101B5
:100AE0000A0100210DF09BFC002010BD3400002005
:100AF00001480078704700003400002005490A785A
:100B0000904201D300207047496800EB400001EBA0
:100B100000107047340000200E4910B591F82D00E8
:100B2000202812D091F82D00A1F58062C0EBC00002
:100B300002EB800091F82D104068C1EBC10152F822
:100B40002120BDE810400421104740F6BC01702070
:100B500003F014FB341A002070B50546202A28D073
:100B600019481A4C00EB831C03EB43030CEB4200C7
:100B70002344202922D00CEB410140784C78487066
:100B8000204601460CEB4100914205704078F8D1B7
:100B900093F82220202A1ABF0CEB4202547083F8EB
:100BA000214020220CEB410C8CF8012083F822100C
:100BB00070BD4FF42671702003F0E0FA93F82040E6
:100BC000407883F82000DBE7B4190020341A0020B5
:100BD0002DE9FF4F8DB015460C4602F02BFA284444
:100BE00020F07F4008902168081A0002C11700EB2E
:100BF00011600012002800F3F080DDF84080CD483D
:100C000008EB48010844099090F820502020CA4E73
:100C10000DF1180A0DF11C098DF81800202D1CBFCC
:100C2000C64800EB881B38D0C5EBC50006EB80003A
:100C300000F10801C0682768381A0002C21700EBEB
:100C40001260001229D4E08900B3C889F0B908689D
:100C5000039003F0E9F8B0F5C67F08BF0D200BD074
:100C6000A0F54070563808BF1C2005D0A0F50070D4
:100C70009F3814BF00203220411C0398381A00020C
:100C8000C21700EB12600012884206DB0BEB450036
:100C90008AF800504578202DC6D19AF8000089F8CE
:100CA0000000202D1CBFA54800EB881B00F03E81F2
:100CB000C5EBC50006EB80076168D7F8088007F12F
:100CC0000800A8EB01010902CA1701EB1261091221
:100CD00027D4C089002800F02981E089002840F04D
:100CE0002581D4F800A003F09FF8B0F5C67F08BFB7
:100CF0000D200BD0A0F54070563808BF1C2005D041
:100D0000A0F500709F3814BF00203220411CA8EBD2
:100D10000A000002C21700EB12600012884280F243
:100D2000058189F80050387E217C884206D90BEB7A
:100D300045004578202DBBD100F0F8B89DF81C0087
:100D4000C0EBC00006EB8000C18AC568E1BBE18949
:100D5000D1B3876803F068F8B0F5C67F08BF0D20EF
:100D60000BD0A0F54070563808BF1C2005D0A0F568
:100D700000709F3814BF00203220411CE81B000285
:100D8000C21700EB1260001288421DDA03F04CF823
:100D9000B0F5C67F08BF0D200BD0A0F540705638C7
:100DA00008BF1C2005D0A0F500709F3814BF00209C
:100DB00032209DF81C10401CC1EBC10106EB8101E3
:100DC0008968084420F07F450898281A0002C11756
:100DD00000EB11600012002803DD11B00020BDE817
:100DE000F08F2068A84202D9A168491CA1606168FF
:100DF0000DF1180A081A284425F07F4120F07F40A1
:100E0000C4E9001010980B9009980DF11C0890F897
:100E1000205020208DF81800202D3CD047490B98F9
:100E200001EB801BC5EBC50006EB800000F108015B
:100E3000C0682768381A0002C21700EB126000125F
:100E400029D4E08900B3C889F0B9D1F8009002F044
:100E5000EBFFB0F5C67F08BF0D200BD0A0F54070AA
:100E6000563808BF1C2005D0A0F500709F3814BF6D
:100E700000203220411CA7EB09000002C21700EB42
:100E800012600012884206DB0BEB45008AF8005026
:100E90004578202DC6D19AF8000088F800000B98FC
:100EA000202D1CBF254901EB801B3FD0C5EBC500A1
:100EB00006EB80076068D7F8089007F10801A9EBF6
:100EC00000000002C21700EB1260001222D4C88991
:100ED00060B3E08950BBD4F800A002F0A5FFB0F5E4
:100EE000C67F08BF0D200BD0A0F54070563808BF54
:100EF0001C2005D0A0F500709F3814BF00203220C0
:100F0000411CA9EB0A000002C21700EB126000129C
:100F100088420BDA88F80050387E217C88427FF6C0
:100F20000DAF0BEB45004578202DBFD111B001204E
:100F3000BDE8F08F341A002034160020B4190020C8
:100F40002DE9F84F0F46064601EB47004B499946FD
:100F50000844924690F8204020201070A1F5806847
:100F6000202C1CBF464800EB871B38D0C4EBC400C4
:100F700008EB800000F10801C0683568281A0002FB
:100F8000C21700EB1260001229D4F08900B3C8899F
:100F9000F0B90868009002F047FFB0F5C67F08BFBF
:100FA0000D200BD0A0F54070563808BF1C2005D08E
:100FB000A0F500709F3814BF00203220411C00981B
:100FC000281A0002C21700EB12600012884206DBEA
:100FD0000BEB44008AF800404478202CC6D19AF8E4
:100FE000000089F80000202C1CBF254800EB871A60
:100FF00040D000BFC4EBC40008EB80077068BD6838
:1010000007F10801281A0002C21700EB1260001253
:1010100022D4C88970B3F08960BBD6F800B002F062
:1010200003FFB0F5C67F08BF0D200BD0A0F54070C0
:10103000563808BF1C2005D0A0F500709F3814BF9B
:1010400000203220411CA5EB0B000002C21700EB70
:101050001260001288420DDA89F80040387E317C37
:10106000884202D80020BDE8F88F0AEB440044789B
:10107000202CBFD10120BDE8F88F0000341A0020D9
:10108000B41900202DE9F74F98B015468B4602F0B1
:101090007FFA044602F0FAFC0646BBF1010F18BFC6
:1010A000BBF1020F05D040F692114FF0700003F033
:1010B00065F8FF4901200860FE4989680860002042
:1010C0008DF856000E90401E0F90FB49C5EBC500F1
:1010D00001EB800101F10800896990E80D1010AF63
:1010E000149187E80D100CF0BEFF0246BDF84E804B
:1010F0009DF84C00F14B4044411C50189A424FD887
:10110000EF4DA94253DC6A42914258DB591C81429F
:10111000DCBF00F5F700A0F1F85005DD0028BCBFEA
:10112000A0F5F70000F1F8500C90E648B8F1000F78
:10113000808BADF8540004BF00200B900BD0012031
:101140000B90E04890F82A0028B902F09FFF002891
:1011500008BF012700D0002702F066FEB0F5C67F69
:1011600008BF0D200BD0A0F54070563808BF1C20DA
:1011700005D0A0F500709F3814BF002032204FF03A
:101180000009CA460990464537D90C99DFF82C93D7
:101190006FEA060C6B4616AA01EB0C00494504D910
:1011A00040F29E51702002F0E9FFAC4504DD40F2B0
:1011B0009F51702002F0E2FFC3498C4504DA4FF4DE
:1011C000B461702002F0DAFFC0498142DCBF00F553
:1011D000F700A0F1F85005DD0028BCBFA0F5F7002E
:1011E00000F1F850194601F041FF0098109920F0E5
:1011F0007F400090081A20F07F49002F18BFDDF8CB
:1012000024A005D19DF85400002818BF4FF0020A11
:10121000B4F1807F08D01098001B0002C11700EBCA
:1012200011600012012802DA0320189D0DE057B169
:10123000A44890F82B0030B19DF8540010F1000A3A
:1012400018BF4FF0020A2546002082441098A0EBF8
:10125000090020F07F42501E20F07F40411B090210
:10126000CB1701EB13610912514504DBB9F1000FF3
:1012700018BF10922DE0B9F1000F05D09DF8550070
:1012800020B902F0F9FB08B1AFB90CE02FB99DF815
:101290005400002818BFAAF1020A4FF000098DF887
:1012A00054904E4607E09DF8540020B100208DF880
:1012B0005400AAF1020A1098A0EB0900401E20F089
:1012C0007F40411B0902CA1701EB12610912514507
:1012D0007EDB0A9705464FF000090B9F02F030F8BD
:1012E000281A0002C11700EB11604FEA202A02F011
:1012F0009BFDB0F5C67F08BF0D200BD0A0F5407058
:10130000563808BF1C2005D0A0F500709F3814BFC8
:10131000002032200B30824520DABBF1010F02D0D1
:101320000A9840B112E0B4F1807F1CD140F613114D
:10133000702002F023FFB4F1807F07D0601B000211
:10134000C11700EB11600012042804DD2C46204672
:1013500002F01CF807E0002863DC04E02C4620467D
:1013600002F014F8B946B4F1807F55D01098119A64
:10137000001B121B20F07F4022F07F42012850D337
:10138000B0F5000F98BFB2F5000F4AD820460CF018
:101390006AFE0C994A4A0D1A4FF0000AAA1A7AF10D
:1013A000000218D3464B421AD31A7AF1000312D323
:1013B000424BAB423EBFC0F5902000F1F4504518BF
:1013C00009D3934231D2C1F5902101F1F45100E0EB
:1013D00027E0084445423B4FB87F58B3BBF1010FAB
:1013E00005D0022002F00EFA012002F00BFAB045FF
:1013F0002CD2A5EB06014FF0020002F04DF990B39C
:10140000B8F1000F1CBFA5EB0801012034D000BFCC
:1014100002F042F938B32FE040F62621702002F0A6
:10142000ADFE1BB00020BDE8F08F40F6FA21702021
:1014300002F0A4FEB04534BF304640461E30A842FC
:10144000CCDB40F63A21702002F098FE0CD9A5EBD7
:101450000801012002F020F928B1002E1CBFA91BB1
:10146000022009D0D4E733E056EA080004D040F661
:101470007611702002F082FE2946002002F00CF95D
:1014800030B30B980126002804BF97F82B000028E2
:1014900002D0B9F1000F34D097F82A0018B102F049
:1014A000C9FC87F82AA0B9F1000F2DD0099810E0E7
:1014B000080500403C00002034160020FF7F841EF9
:1014C0000040420F341A002000C0BDF00080841E8E
:1014D0000DE0201A20F07F41052002F0DDF858B31E
:1014E00097F82B00002808BF87F82B6014E0022033
:1014F00002F088F9012002F085F91BB00020BDE858
:10150000F08F97F82A0090B197F82B0020B10520B2
:1015100002F078F987F82BA0A5EB0800A0F11901DB
:1015200000290EDC40F66321702002F027FE02F055
:101530009DFC87F82A60B6E74FF43E71702002F0F8
:101540001DFE032002F0A8F8B8B10E488068C0F86C
:1015500000A00D48C0F800A00DF1380898E87F10F1
:1015600038607960BA60FB603C617D61BE61C7F83C
:101570001CC01BB00120BDE8F08F40F66B2170202D
:1015800002F0FCFD3C000020080500402DE9FF4F63
:101590000D46144606464FF0000A2A894168504617
:1015A00062F31F40AA7AD14662F30709EA7A83B050
:1015B00062F30F292A78C4F800A062F31749C4F82F
:1015C00004A0C4F81090C4E902109D4F7068A0FBFD
:1015D000078930680CF047FD10EB08014AEB09025F
:1015E00028784FEA6709C9F1000B70B1E08994F8D7
:1015F0001180C043D5F804A004F10C0248457CDDFD
:1016000040F29F51702002F0B9FDDFF838C2D5E9F1
:10161000040311EB0C0A42F1000CB0EB0A0A73EB65
:101620000C0C72D2411A73EB02016ED3B0EB0806B8
:10163000B7422BD8E089A6F1F458A8F59028C14309
:10164000814A08EB010042452BD34945D8DC594576
:1016500066DB8742DCBF00F5F700A0F1F85005DD3E
:101660000028BCBFA0F5F70000F1F8506A4601A9B8
:1016700001F0FCFCE0899DF80010301A401A401E71
:10168000B84202D3A068401CA0604646E0896E4B79
:10169000C1436D6894F81180701804F10C029E42E9
:1016A00004D940F29E51702002F068FD4945A7DC44
:1016B000594535DB8742DCBF00F5F700A0F1F85053
:1016C00005DD0028BCBFA0F5F70000F1F850214669
:1016D00001F0CCFC206820F07F417019401C216093
:1016E000B8F1000F08BF7A3004D0B8F1010F08BF7D
:1016F00048303AD101F09EFC01E00EE005E020F018
:101700007F40606007B0BDE8F08F3068401E20F079
:101710007F40206000F57A70F3E70146584504DA0F
:101720004FF4B461702002F029FD8742DCBFA1F1C3
:10173000F450A0F5902005DD0028BCBF01F1F45065
:1017400000F59020214601F091FC2068B8F1000FCF
:1017500020F07F410AF10100216008BF7A3009D0F2
:10176000B8F1010F08BF483004D040F23961702051
:1017700002F004FD01F05EFC20F07F416160B4F8EE
:101780000E9001AA69464846376801F06FFC02F0E6
:101790007DF901F04FFC80462C4890F82D1020294F
:1017A0002AD0C068401D20F07F4000BFD4E900214E
:1017B000891A014421F07F41C4E900013168814266
:1017C00002D9A068401CA060326828692146069BA7
:1017D000FFF7FEF900281CBF07B0BDE8F08FD4E981
:1017E0000010401A316821603168084420F07F40C1
:1017F000606007B0BDE8F08F0937B9F1000F16D06F
:1018000002F044FC98B902F00FFBB0F5C67F08BFA8
:101810000D200BD0A0F54070563808BF1C2005D015
:10182000A0F500709F3814BF0020322007440098B4
:10183000804584BFA8EB0000074427F07F40B5E750
:101840000080841E0040420FFF7F841E341A002057
:1018500070B51E4D95F82D00202818BF70BD95F865
:101860002C2002EB4200284490F82040202C27D066
:10187000174B03EB821101EB4401497880F82010EB
:10188000FF2085F8290085F82D402146022000F030
:1018900091F8002085F82800A8770E49C4EBC40011
:1018A00001EB8000007E002808BF02F0F3FF00205B
:1018B00009494968002908BF70BDBDE87040084764
:1018C00040F23231702002F059FC0000341A00203E
:1018D000B4190020341600203C0000202DE9F05FF0
:1018E000DFF8C08098F82C5005EB4500404490F894
:1018F0002140202C08BFBDE8F09FDFF8ACB0DFF836
:10190000ACA0AAF560790AEB8517072617F8140032
:1019100001280ED0042808BF02260AD005280CBFD3
:101920000326062805D040F6DD014FF0700002F0D6
:1019300025FCBBF1000F18BFAFF30080EFF3108060
:1019400072B607EB44014A7805EB4501414481F842
:10195000212091F82220A24204BF202281F82220D7
:10196000C0B12A462146012000F024F8C4EBC4018E
:1019700009EB810059F8212040683146904798F8DA
:101980002C5005EB4500404490F82140202CBAD162
:10199000BDE8F09F0648002818BFAFF3008062B68C
:1019A000DFE70000341A002000000000B419002016
:1019B00000000000DFF858C010B500230CEB821CBB
:1019C00007281FD2DFE800F0050505050404040020
:1019D00001230CF81100002B08BF10BD02EB4202DE
:1019E0000C48024492F8220020280EBF82F82110F1
:1019F0000CEB4000417020200CEB4103587082F842
:101A0000221010BD40F26E21702002F0B7FB0000E2
:101A1000B4190020341A00202DE9F05F0F468046EB
:101A2000DFF858A101EB47005044B8F1010F90F8DE
:101A30002040254618BFB8F1020F05D040F6A1217D
:101A40004FF0700002F09AFB4FF0000B202D42D0B7
:101A50009AF81E000026002808BF022601F070FC3C
:101A6000DFF81CC1C4EBC4010CEB81018A68C968B2
:101A7000121A091A22F07F4221F07F41964299BF43
:101A8000B2F5000FB1F5000F3E4A02EB871920D9DD
:101A9000224609EB42014C78202C12D0C4EBC40141
:101AA0000CEB81018B68C9681B1A091A23F07F436C
:101AB00021F07F419E429CBFB3F5000FB1F5000FAE
:101AC000E6D8202A05D03B4620210420FFF744F821
:101AD0000446AC4216D12C48002818BFAFF3008052
:101AE00001F02EFC03469AF82E0020280DD0DAF8DB
:101AF0000800991C081A0002C11700EB11600012BF
:101B0000002802DD0020BDE8F09F202D14D02A46D9
:101B100041461846FFF7B6FA00281EBF8AF82E5035
:101B20000220BDE8F09F3B462A4620210420FFF713
:101B300013F80020BDE8F09F9AF82A0018B102F0CF
:101B400079F98AF82AB09AF82B0020B1052001F023
:101B500059FE8AF82BB0042001F054FE01F0C2FEB9
:101B600020208AF82E0009488068C0F800B0084894
:101B7000C0F800B00120BDE8F09F0000341A00203A
:101B800034160020B4190020000000003C000020A2
:101B900008050040064910B591F82D20202A1CBFE9
:101BA000887710BD40F29A31702002F0E7FA000009
:101BB000341A00202DE9F04F694E07468DB096F893
:101BC0002D008846202855D096F82D0006F10804EF
:101BD000C0EBC000A6F5806909EB800A20208DF8D3
:101BE000200096F82C000AAA00EB4000304409A916
:101BF00090F82050F06802903068384401F036FACE
:101C0000DAF80C000999652F084438D3554A0021A9
:101C1000D21B71EB010232D32268821A22F07F427A
:101C2000B2F5000F2BD820F07F406060304684F87A
:101C3000108090F82C000DF1200A202D1CBF4A497D
:101C400001EB801B50D000BFC5EBC50009EB80083D
:101C50006168D8F8086008F10800711A0902CA170B
:101C600001EB126109122DD4C08900283CD0E08913
:101C700048B139E040F66831702002F07FFA0DB0CB
:101C80000120BDE8F08F20680C9002F0CDF8B0F58F
:101C9000C67F08BF0D200BD0A0F54070563808BF96
:101CA0001C2005D0A0F500709F3814BF0020322002
:101CB000411C0C98301A0002C21700EB126000128F
:101CC000884211DA8AF8005098F81810207C814276
:101CD00005D8029860600DB00220BDE8F08F0BEBD4
:101CE00045004578202DAFD1052001F08BFD1C4C1F
:101CF0004FF0FF30606094F82C309DF820202021B8
:101D0000202A03D00520FEF727FF04E003EB430061
:101D1000204490F8200094F82C20134901EB821104
:101D200094F82D2001EB420148702068384420606F
:101D3000FF2084F82900607E012805D1E068401E5C
:101D400020F07F4001F0C2FB9DF82000202803D046
:101D50000648407802F0E6FA0DB00020BDE8F08FAA
:101D6000341A00200040420FB41900203C0000202B
:101D700070B5244A92F82D1020293AD092F82D10EF
:101D8000A2F58063C1EBC10103EB810C92F82C102A
:101D900092F82C4001EB4101114491F82010A2F17E
:101DA000800505EB8414202928D0C1EBC10503EB85
:101DB00085052D7E854284BF04EB41014978F2D828
:101DC000C1EBC10103EB8101DCF80C0089681468E8
:101DD000081A0002C11700EB1160001207D40CF0C2
:101DE00042F904F16501884224BF001B70BD002048
:101DF00070BD40F63A31702002F0C0F94FF0FF306C
:101E000070BD0000341A0020064810B590F82D105F
:101E100020291CBF007E10BD40F66231702002F008
:101E2000ADF90000341A002070B5C0EBC0010948BC
:101E300000EB810408492069A0FB0156A0680CF062
:101E400012F9E18A227D401C11440844401946F1F0
:101E5000000170BD341600200080841EF8B56B4D63
:101E60006B4A05F58064012694F82A1008287CD274
:101E7000DFE800F0047097A9C741AEB319B901F0CB
:101E8000F5FF84F82A60E08A10B102F0FFF880B113
:101E9000FFF7DEFCFF2084F827006168B1F1FF3F07
:101EA00003D0052001F0F8FB40B1607E012810D17D
:101EB00009E040F66901702002F060F940F66E0119
:101EC000702002F05BF9E068401E20F07F4001F0D6
:101ED000FDFA94F82D0094F82D10C0EBC00005EB2E
:101EE00080004068C1EBC10155F8212001B00121FB
:101EF000BDE8F040104794F82B0040B119B901F04B
:101F0000B5FF84F82A60002084F82B00F8BDFFF7A5
:101F10009FFC4FF0FF30606094F827008DF80000C0
:101F20009DF8000088B194F82D0094F82D10C0EBB6
:101F3000C00005EB80004068C1EBC10155F82120CD
:101F400001B00621BDE8F040104740F68501702041
:101F500002F014F9FFF77CFC84F8266002F096F892
:101F600020B194F82A0030B109E04AE040F693012C
:101F7000702002F003F901F079FF84F82A6094F8E8
:101F80002D0094F82D10C0EBC00005EB80004068D8
:101F9000C1EBC10155F8212001B00021BDE8F0409E
:101FA000104701F055FDE08A10B102F06FF828B13A
:101FB00001F062FD002818BF6677F8BD40F69D016C
:101FC000702002F0DBF81348066090680660F8BDE8
:101FD0001078BDE8F84002F0A5B9FFF739FC94F895
:101FE0002D0094F82D10C0EBC00005EB8000406878
:101FF000C1EBC10155F8212001B00521BDE8F04039
:1020000010474FF40B61702002F0B8F8341600202E
:102010003C000020080500402DE9F34F8246ED48C2
:102020008DB00068EC4DC005C00D0ED0103840B228
:102030000028B8BF00F00F0000F1E020ACBF90F81E
:10204000000490F8140D40090DD00E984FF0000BCD
:102050000078002818BF012818D040F23B714FF0DB
:10206000700002F08BF895F82D004FF0010B20283E
:1020700007D00E98007848B140F23771702002F016
:102080007DF840F23471702002F078F8D34C24B11E
:10209000002140F23E70AFF300800020CDE90A003D
:1020A000CF49CAEBCA0001EB80004FF00109009054
:1020B00024B1002140F24970AFF30080B9F1000F64
:1020C0000AD000BF95F82C604FF0000885F82980F1
:1020D000BBF1000F07D038E0C248002818BFAFF3AB
:1020E000008062B6EEE73746012020EA0706BE48C8
:1020F000402200EB871100EB86100CF016F924B19A
:10210000002140F25E50AFF3008007EB470106EB81
:102110004600294428440A8C028491F8221080F851
:10212000221024B1002140F26250AFF3008024B1AC
:10213000002140F25370AFF3008095F829008DF82C
:1021400018009DF818000028B2D124B1002140F2F7
:102150005D70AFF3008006A801F0F8F8DDE9060134
:10216000CDE90801334601AA08A80E99FFF70EFA37
:1021700024B1002140F26470AFF300809A4A0899BC
:1021800002EB861701A817F81A20012A18BF022AA5
:1021900038D1CDF82C80019A029BA2EB010222F0EB
:1021A0007F42A3EB010121F07F41022A60D3B2F507
:1021B000000F98BFB1F5000F5AD84FF0010807ABD8
:1021C00006AA3146FEF7BCFE002859D09DF818102B
:1021D0009DF81C2033468A4256D00520FEF7BCFCF1
:1021E00007EB4A0148709DF8180020281CBF07EB38
:1021F000400080F801A053D0324651465FF0030002
:10220000FFF7D8FB24B1002140F26970AFF30080E2
:102210007648002818BFAFF30080EFF3108972B63C
:1022200024B1002140F26F70AFF3008095F82900CF
:102230008DF818009DF8180000287FF439AF24B1FC
:10224000002140F27770AFF300809DE88F1000F11D
:102250000800B8F1000F80E88E1051D024B10021A1
:1022600040F28470AFF30080BBF1000F39D11FE062
:10227000324651460420FFF79DFB4FF00108C1E7AD
:10228000324651460420BBE7202919BF07EB410025
:10229000407806EB4600284408BF90F820009FE7EE
:1022A00006EB4601294481F820A0CDF82C80A3E755
:1022B0000B9810F0FF0F14D095F82D00202810D1A6
:1022C00024B1002140F28970AFF300803146022032
:1022D000FFF7A2FB0A9020B90E980078E8B1012818
:1022E0002AD024B1002140F2A670AFF30080FF2075
:1022F000BBF1000F18BF85F8290026D04FF0010868
:1023000024B1002140F2B770AFF300800A98384E34
:10231000022823D0012829D02DE024B1002140F249
:102320009170AFF3008095F82C2051460420FFF700
:1023300041FB4FF00108E3E7002C3FF4B9AE002168
:1023400040F29C70AFF30080B2E695F82C2001219A
:10235000914385F82C1085F82900CFE7A8680899E3
:10236000401A0BF080FE716821B904E071684FF0EB
:10237000FF3001B18847B9F1000F24D024B100210A
:1023800040F2C770AFF30080B8F1000F11D095F89C
:102390002C0000EB4000284490F82100202808D0B1
:1023A00024B1002140F2CE70AFF30080707801F0CC
:1023B000B9FF24B1002140F2D370AFF300800FB019
:1023C0004046BDE8F08F0748002818BFAFF30080F3
:1023D00062B6D3E704ED00E0341A002000000000EC
:1023E0003416002000000000B41900200000000096
:1023F0003C0000202DE9F04F064600788DB018B162
:102400000DB00020BDE8F08F8C480068C005C00DFD
:102410000ED0103840B20028B8BF00F00F0000F115
:10242000E020ACBF90F8000490F8140D4009E7D00C
:10243000834D844C4FF0010B002725B1002140F261
:10244000E550AFF3008094F82CA084F829704FF089
:10245000000925B1002140F2EA50AFF300807A482C
:102460002BEA0A0800EB8A1100EB881040220BF0DF
:102470005CFF25B1002140F25E50AFF300800AEB13
:102480004A0108EB4800214420440A8C028491F858
:10249000221080F8221025B1002140F26250AFF3E3
:1024A000008025B1002140F2EF50AFF3008008A872
:1024B00000F04CFFDDE90801CDE90A0143466A4618
:1024C00031460AA8FFF762F825B1002140F2F55025
:1024D000AFF3008094F82D0020281AD0E06800990E
:1024E000091A0902CA1701EB1261091211D50099E4
:1024F000814202D90299491C0291DDE90021891A21
:1025000020F07F42084420F07F40CDE900204FF0CA
:10251000010925B1002140F2FF50AFF3008000997E
:102520000A98019A091A101A21F07F4120F07F4081
:10253000B1F5000F98BFB0F5000F09D843466946C2
:1025400042480A9AFEF744FB59EA000029D142E0CA
:102550000B98BDF80EA0029009AA07A95046DDF815
:10256000288000F083FD01F091FA00F063FD8146C0
:1025700094F82D0020283BD0E068401D20F07F40DB
:102580000099814202D90299491C0291DDE900219A
:10259000891A0090084420F07F4001901F208DF898
:1025A0000C0000980BF05FFD411CBDF80E009DF87B
:1025B0000C2010440844C6E9040725B1002140F26C
:1025C0001A60AFF30080D6E90410214A029BE3FBB6
:1025D0000210C6E9041094F829008DF814009DF843
:1025E000140000287FF429AF0DB00120BDE8F08F62
:1025F00008F10908BAF1000F16D001F047FD98B9AB
:1026000001F012FCB0F5C67F08BF0D200BD0A0F57D
:102610004070563808BF1C2005D0A0F500709F38C8
:1026200014BF3846322080440798814584BFA9EB07
:102630000000804428F07F40A2E7000004ED00E0A5
:1026400000000000341A0020B41900200040420F9E
:102650000080841E2DE9F14F924D8CB095F82C002E
:1026600000200890069001208F4CA5F180094FF0C2
:1026700000080746079024B1002140F2E470AFF350
:102680000080079800283CD085F8298024B10021DB
:1026900040F2E970AFF3008095F82CA0402227EAC1
:1026A0000A0609EB861009EB8A1183460BF03DFE02
:1026B00024B1002140F25E50AFF3008006EB4600EB
:1026C0000AEB4A012844294400900A8C028491F8BC
:1026D000221080F8221024B1002140F26250AFF3A2
:1026E000008095F829008DF808009DF8080078B161
:1026F000002C1CBF002140F2EF70BCD0AFF3008073
:10270000B9E76A48002818BFAFF3008062B6BBE79C
:1027100024B1002140F2F370AFF300800C981BF855
:10272000100003287ED1009A0C9992F8200088426C
:1027300014BF4FF0000A4FF0010A02F1200C83464B
:10274000202209EB861303E0024603EB42004078A7
:10275000884202D020280AD0F6E7202807D08345F7
:1027600007D103EB4B0040788CF8000007E04046AF
:102770000CE003EB400003EB42014078487024B1C9
:10278000002140F2C940AFF300803846C34610EA4A
:102790000A0F18BFBB4600284ED024B100214FF4C9
:1027A000FF60AFF30080324601200C99FFF702F979
:1027B00024B1002140F60100AFF300803C4800281E
:1027C00018BFAFF30080EFF3108072B6079024B10A
:1027D000002140F60600AFF3008095F829008DF83F
:1027E00008009DF8080038B1002C1CBF002140F6FD
:1027F0000A003FF440AF81E7BBF1000F09D095F824
:102800002D00202805D131460220FFF705F906905A
:10281000F8B124B1002140F61E00AFF3008095F816
:102820002C0000E008E027EA000085F82C00FF20DB
:1028300085F829000120089024B1002140F62700E6
:10284000AFF3008006981B4E022809D0012810D053
:1028500014E09CB1002140F61900AFF30080ECE7D2
:1028600000F06EFDA968081A0BF0FDFB716821B934
:1028700004E071684FF0FF3001B18847079848B114
:1028800024B1002140F63C00AFF3008008980DB061
:10289000BDE8F08F0548002818BFAFF3008062B68E
:1028A000EEE70000341A00200000000000000000E5
:1028B000000000003C000020202824BF00207047BA
:1028C000C0EBC000034B43F8201003EB80004260D4
:1028D000012070473416002010B5202811D20E496F
:1028E00091F82C30A1F1800202EB831C1CF810300F
:1028F0003BB191F82C3002EB831212F81020012A20
:1029000001D0002010BD91F82C2001460020FFF7D7
:1029100051F8012010BD0000341A00202DE9F84FB5
:10292000864E804696F82C00A6F1800707EB8010B3
:1029300010F81800002871D096F82C90804D25B121
:10294000002140F6AE30AFF3008007EB891414F895
:102950001800012818D0C0B204281CBF052806287A
:1029600061D02DB14FF0000140F6BA30AFF30080D6
:1029700001F03EFD25B1002140F6BE30AFF30080EE
:1029800014F818000128E6D1012425B1002140F6F1
:10299000C530AFF30080002C4BD0002086F8290012
:1029A00025B1002140F6CA30AFF3008096F82CB074
:1029B000012020EA0B0907EB8B1107EB891040225D
:1029C0000BF0B3FC25B1002140F25E50AFF3008064
:1029D00009EB490000EB060A0BEB4B003044018C7D
:1029E000AAF8201090F822008AF8220025B10021D0
:1029F00040F26250AFF3008096F829008DF8000095
:102A00009DF80000E0B1002D1CBF00214FF43D6097
:102A1000BBD000BFAFF30080B7E7FFE740F6A531BA
:102A2000702001F0ABFB4A4641460120FEF7C2FF91
:102A3000A0E74448002818BFAFF3008062B6ACE7B7
:102A400025B1002140F6D430AFF300809AF8213050
:102A50000AF1210140461C464FF0200B07EB89127A
:102A60000AF1220A04E0A34602EB4B0C9CF8014059
:102A7000844202D0202C2BD0F5E7202C28D0A34272
:102A800004D102EB43004078087005E002EB4400FB
:102A900002EB4B0140784870BAF1000F11D025B11C
:102AA000002140F2C140AFF300809AF80000A0423C
:102AB00007D125B1002140F2C440AFF300808AF86D
:102AC00000B05DB1002140F2C940AFF3008000E0EA
:102AD00025B1002140F6D830AFF300801A48002815
:102AE00018BFAFF30080EFF3108472B696F8290098
:102AF0008DF800009DF8000038B1002D1CBF0021AA
:102B000040F6DE303FF441AF84E786F82C90FF209A
:102B100086F8290054B1002D08BFBDE8F88F0021C8
:102B200040F6EB30AFF30080BDE8F88F0548002891
:102B300018BFAFF3008062B6EDE70000341A002042
:102B400000000000000000000000000070B50D460D
:102B5000064601F089FA0F4890F82C2000248038AE
:102B600000EB821010F8141029B1611CCCB2202C9B
:102B7000F8D3202070BD0848C4EBC40140F82160A0
:102B800000EB8100214645600120FEF713FF20463F
:102B900070BD0000341A0020341600202DE9F04FDB
:102BA00083B000F0CDFB054600F09CFE844C6068CD
:102BB000B0F1FF3F1CBF4FF0FF306060A07FDFF837
:102BC000049290B9D4E90210401A20F07F404FF4EB
:102BD0000C710BF07BFAE1680844281A0002C11757
:102BE00000EB11600012C00F12D0607E20B394F889
:102BF00027008DF800009DF80000E8B100F0CEFC41
:102C000094F82800F0B140F2F531702001F0B6FAE6
:102C100094F82D0094F82D10C0EBC00009EB800053
:102C20004068C1EBC10159F821200821904740F2CA
:102C3000DD31702001F0A2FAE81C20F07F4000F0A6
:102C4000A5FBDDE7012084F8280094F82D0020285A
:102C500021D094F82D80202084F82D0084F82E00B7
:102C6000002084F8260084F82700206000F014FF7C
:102C7000207794F82C6006EB4600071997F820009F
:102C8000202858D0C0EBC00009EB800999F81A0041
:102C9000012805D04FE04FF47E71702001F06EFAEC
:102CA000B9F816B001AA6946584600F0DFF900F0FD
:102CB000EDFE00F0BFF994F82D00202804D0E06864
:102CC000401D20F07F401DE005F1090ABBF1000F17
:102CD00016D001F0DBF998B901F0A6F8B0F5C67F7F
:102CE00008BF0D200BD0A0F54070563808BF1C203F
:102CF00005D0A0F500709F3814BF00203220824418
:102D00002AF07F40D9F80820811A0902CB1701EB7D
:102D10001361091200290EDC09F10803824202D274
:102D20009968491E9960D3E90021891A18600844FE
:102D300020F07F40586031460120FEF76DFE5FEACB
:102D40000009F8D0204800EB861010F8180002287F
:102D500004D1324641460620FEF72CFEFF2084F8BF
:102D6000290097F82100194E20281CBF707801F027
:102D7000D9FA207F20B100F06BFE00202077607729
:102D8000B9F1020F11D0B9F1010F1CBF03B0BDE8BA
:102D9000F08F4FF0FF307168002904BF03B0BDE829
:102DA000F08F03B0BDE8F04F0847A068401B0BF060
:102DB0005AF971680029F4D103B0BDE8F08F000022
:102DC000341A002034160020B41900203C000020E2
:102DD00070B5424C054682B094F82D00202808D0EA
:102DE0006068B0F1FF3F09D040F6D921702001F0B2
:102DF000C5F940F6D821702001F0C0F994F82D00F3
:102E00003749C0EBC00001EB8006B0680BF02BF92E
:102E10000246F08A317D334B0844401C11189A4217
:102E200017D8314A90421BDCC2F1000C60451EDB12
:102E300056008E42DCBF01F5F701A1F1F85105DD26
:102E40000029BCBFA1F5F70101F1F85148199942D9
:102E500004D940F29E51702001F090F9954204DDB2
:102E600040F29F51702001F089F9654504DA4FF472
:102E7000B461702001F082F98642DCBF00F5F700F2
:102E8000A0F1F85005DD0028BCBFA0F5F70000F167
:102E9000F85001AA694600F0E9F89DF804000F28EF
:102EA0008CBF012000200099084420F07F41616020
:102EB00094F827008DF800009DF80000002804BF5A
:102EC00002B070BD052000F0E7FB00281CBF02B077
:102ED00070BD4FF42E61702001F050F9341A0020BB
:102EE00034160020FF7F841E0040420F70B51C4C3A
:102EF000202184F8201084F8211084F8221000206A
:102F000084F82C0084F82D10421EC4E90002A0773A
:102F100084F8260084F827002077607784F82E1044
:102F200084F82A0084F82B00A4F182011022887012
:102F300001F8040F521EFAD100F0B8FD094D012628
:102F400084F82860FF202870074801F0CDF96870E8
:102F500001F038FAA86000F033FD84F82F6070BDEE
:102F6000341A00203C000020DD88000000B583B04A
:102F7000684600F0EBF900980BF075F8019A034BE6
:102F80000021E2FB030103B000BD00000080841EAD
:102F900070B5064682B01D4610460BF064F8044634
:102FA000684600F0D3F920490198A0FB0102301ACD
:102FB00044BFA0F5F70010F1F85004D54FF440617C
:102FC000702001F0DBF8884204DB40F601417020FC
:102FD00001F0D4F8154A211A00238A1A73F100026D
:102FE00018D3DFF848C0021BB2EB0C0C73F10003DE
:102FF00010D30F4B8B423EBFC0F5902000F1F45030
:10300000011907D393420AD2C4F5902101F1F4517A
:103010000844414201F10F0002B0281A70BD40F689
:10302000FA21702001F0AAF80080841E0040420FAF
:10303000FF7F841E410B48F2376251430A0C094B53
:10304000510202FB03020848504300F586306E30FF
:10305000400D5B4210FB03F3B2EB532F88BF491CBA
:1030600008447047F7C2FFFF6F0C0100430B48F2A2
:10307000376C03FB0CF330B41B0CDFF844C05C026C
:1030800003FB0C030F4858434FEA505C04EB0C0061
:1030900043F609541CFB04F404F5807C43F6085500
:1030A000A3EB5C2C2C440CF0FF0CB3EB542F84BF2F
:1030B0004FF0000C401C086082F800C030BC704724
:1030C000F7C2FFFF6F0C01002DE9F0413B4DD5F831
:1030D0000403DFF8EC8010F4803F4FF400664FF0FB
:1030E000E0274FF0000419D036480068B0B1C5F8A9
:1030F0004041C7F88062D5F84005D8F80010401A62
:1031000020F07F40022802D3B0F5000F06D94FF41B
:103110008030C5F808030420FEF7A0FED5F80403AC
:1031200010F4003F1AD028480068B8B1C5F84441EF
:10313000C7F880622548D0F84005D8F80010401A3A
:1031400020F07F40022802D3B0F5000F06D94FF4DB
:103150000030C5F808030520FEF780FED5F804030B
:1031600010F4802F1AD01A480068B8B1C5F8484149
:10317000C7F880621748D0F84005D8F80010401A08
:1031800020F07F40022802D3B0F5000F06D94FF49B
:103190008020C5F808030620FEF760FED5F804017C
:1031A000002808BFBDE8F081C5F80441C7F8806277
:1031B0000948C168491CC160BDE8F08100B0004009
:1031C00004B5004040B1004044B1004004B00040AC
:1031D00048B1004008B00040480000202DE9F0410F
:1031E000384D2878042868D0A81C0122017859B1EC
:1031F000012908BF6A7002D06978002958D00221DD
:103200000170407800F0FEFA2F4CD4F804034FF020
:10321000000810F4002F4FF480774FF0E0260AD01A
:103220002A48006838B1032000F0ECFAC6F8807232
:103230000320FEF713FED4F8040310F4802F0AD005
:103240002348006838B1022000F0DCFAC6F880722A
:103250000220FEF703FED4F8040310F4003F0AD066
:103260001C48006838B1012000F0CCFAC6F8807222
:103270000120FEF7F3FDD4F8040310F4803F08BFEB
:10328000BDE8F08114480068002808BFBDE8F0815F
:10329000002000F0B7FAC6F8807204202870C5F844
:1032A0000480C4F80082BDE8F0410020FEF7D6BDDE
:1032B00040F2A3416C2000F061FFBDE8F04107201F
:1032C000FEF7CCBD48000020008000404C8100404B
:1032D00048810040448100404081004001221102A9
:1032E0004FF0E0230020C3F8801103F5C073BFF353
:1032F0004F8FBFF36F8FC3F800110E4941F8042FB1
:10330000431EC1F80433C1F83C05C1F83C010A4B27
:10331000C3F84005C1F840011B1DC3F84005C1F8C2
:1033200044011B1DC3F84005C1F84801CA600349A8
:103330004870704700800040048000404800002032
:10334000014800687047000004B5004030B4EFF356
:10335000108C72B600250B4B0B4A00BFD3F8041536
:10336000D3F804412CB1D168491CD160C3F8045191
:10337000F4E7D268BCF1000F00D162B6C0E90012D8
:1033800030BC704700B00040480000202DE9F047F5
:10339000464E0546B71E3378B968012B04BFA942D3
:1033A000BDE8F0874FF04040414A1060424A414832
:1033B000C2F8080302F1040C4FF00004002B62D0A5
:1033C0003E48C2F84803CCF84045C2F8444100BF2B
:1033D000D2F848014FF0E0294FF00108002801BF62
:1033E000D2F8040100284FF40060C9F880024FF4BD
:1033F0008030C2F80803C2F84803C2F840413048A0
:10340000D0F800C0A5EB0C0C2CF07F4CBCF1020FE7
:1034100044D3BCF5000F41D8C2F840554FF4803C6E
:10342000C2F844C32BB102688A1A22F07F42022AF2
:10343000F9D3C7F804803C70FFF750FF2148D0F85B
:10344000041564F30101C0F80415D0F80825022121
:1034500061F30102C0F808250421C0F81015C0F876
:103460000C807968C0F800128015C9F88002C9F88C
:1034700000011549C00508600420BD60707086F821
:103480000080BDE8F087C2F84803C2F84045C2F8A2
:103490004041CCF84045C2F8444199E70020C2F8C9
:1034A000400540F297216C2000F068FE4A000020A1
:1034B00008F50140FDFFFBFF00B00040FDFFFAFFF3
:1034C00004B500400080004004F5014070B52A4C6E
:1034D000A168814214BF01220022DFF8A0C09CF83D
:1034E0000050022D02D0002A34D002E0002A08BF8A
:1034F00070BD62789AB3224B4FF080421A60214B24
:103500009213C3F80823C3F848230022C3F84021CC
:103510001D4A1668861B26F07F46022E24D3B6F578
:10352000000F21D8C3F840054FF48036C3F8446338
:103530002DB11368CB1A23F07F43022BF9D3134B21
:1035400002214A071A60A06004208CF801008CF860
:10355000001070BD40F2A5216C2000F00FFE40F27B
:10356000A9216C2000F00AFE0020C3F8400540F2BB
:10357000B5216C2000F002FE480000204A00002027
:1035800008F5014000B0004004B5004004F50140DA
:103590000148806870470000480000202DE9F04194
:1035A0003648354AC0F80823DFF8D4C0031D00218F
:1035B0009CF8004084B1334AC0F84823C3F8401552
:1035C000C0F84411D0F848210123002A04BFD0F8E4
:1035D0000401002811D10AE0C0F84823C0F84015C2
:1035E000C0F84011C3F84015C0F84411EAE74FF0A5
:1035F000E0224FF40060C2F88002022C04D040F2B6
:10360000C1216C2000F0BAFD1F4E30681F4CC01C59
:1036100020F07F40A2681E4D90420BD03768D71B28
:1036200027F07F47042F05D3B7F5000F02D8FFF727
:10363000ADFE1BE03068101A20F07F40022813D343
:10364000B0F5000F10D8134A4FF08040106063604F
:1036500021706B60EB604000111F086004208CF843
:1036600001008CF8003001E0636021706068C5F8EB
:103670000002BDE8F0810000FDFFFBFF00B000404C
:103680004A000020FDFFFAFF04B50040480000207A
:103690000080004008F501402DE9F041544A002522
:1036A000012492F800C053784FF4A07607287DD209
:1036B000DFE800F004040404585858004D4A9768A5
:1036C000B7F1807F04BF5278002A03D0BCF1020F0B
:1036D00005D026E040F251316C2000F04FFD1A1F5A
:1036E000D2B206EB820202F1804606F53046002295
:1036F000BCF1010F03D0BCF1020F08D00EE0042B87
:1037000024BF3768002F08BF4FF0004206E0042BAB
:1037100024BF3768002F08BF42F0804212F0804F6C
:10372000E5D1DFF8D4C000F1100204FA02F2CCF8BF
:1037300008234FF0400303EB8003DBB263441C60BB
:103740000CEB8000D0F84035A1EB030323F07F435E
:10375000032B26BFC0F84015CCF80423C0F8405511
:1037600037D23CE0BCF1000F06D0834204D140F2D6
:1037700071316C2000F002FD021FD3B2032B04D381
:103780004FF4E6716C2000F0F9FCDFF870C003F133
:10379000100204FA02F2CCF80823CCF8482306EB16
:1037A00083034CF80350164B1B6800E01AE0001F1F
:1037B000CB1A23F07F43C0B20CEB8000022B0BD35B
:1037C000B3F5000F08D8C0F84015CCF80423CCF8A6
:1037D00044230120BDE8F0810021C0F840150020FD
:1037E000BDE8F08140F275316C2000F0C7FC0000AC
:1037F0004A000020480000200080004000B0004047
:1038000004B500402DE9F843012600274FF4A078C5
:10381000072851D2DFE800F0040404041919190044
:1038200000F1100106FA01F22649C1F8082301EB64
:1038300080030022C3F8402508EB80028F50224904
:1038400051F820000090BDE8F883204D011FCCB254
:10385000297879B16A7882420CD11D4A4FF04040F4
:103860001060012908BFFFF739FD2F7019494FF08B
:1038700080708860184904F1100006FA00F0C1F861
:103880000803C1F84803A0000844D0F84005134AD3
:103890001268801A20F07F40022807D301EB8402CF
:1038A0000020C2F8400508EB84000F500C4850F887
:1038B00024000090BDE8F88340F2F9316C2000F05C
:1038C0005DFC000000800040408100404A00002074
:1038D00008F501404800002000B0004004B5004059
:1038E00040B100402548244AC0F808232449031D5C
:1038F00091F800C00021BCF1000F10D0214AC0F89F
:103900004823C3F84015C0F8441100BFD0F848213F
:10391000002A04BFD0F80401002811D10AE0C0F841
:103920004823C0F84015C0F84011C3F84015C0F84E
:103930004411EBE74FF0E0224FF40060C2F8800240
:1039400011484FF0FF32C0F80823C0F84015C0F806
:10395000401100F10402C2F84015C0F8441102F110
:103960000402C2F84015C0F8481102F10402C2F87E
:103970004015C0F84C117047FDFFFBFF00B0004040
:103980004A000020FDFFFAFF0080004010B5072824
:103990000DD2DFE800F00404040406060600064920
:1039A00002E0001F0549C0B201EB800010BD40F2EB
:1039B00099316C2000F0E2FB4081004040B10040B2
:1039C00070B51F48002404210470801E0170890511
:1039D000C4608160FFF782FC01254FF0E02CEB0210
:1039E000CCF88031BFF34F8FBFF36F8FCCF88032AC
:1039F00014484560856014490A68002AFCD1511EAC
:103A0000C0F80813C0F84813C0F84045C0F840415A
:103A10000E49C1F84045C0F84441091DC1F8404570
:103A2000C0F84841C0F80441CCF8003105604FF4BB
:103A30008271C0F844130221C0F8041370BD000065
:103A40004A00002000B0004004B5004004B000402F
:103A5000084890F900000028B8BF704700F01F0127
:103A6000012202FA01F14009800000F1E020C0F8D3
:103A700000127047640300200348007803280CBF3D
:103A800001200020704700005003002001484088BA
:103A9000704700005003002003480078022816BF3A
:103AA0000328012000207047500300200248002115
:103AB0000170418070470000500300202DE9F04163
:103AC000164C607A002827D04FF480718D05284667
:103AD0000AF020FB80464FF4827128460AF01AFB58
:103AE00000260746B8F1000F09D00120C5F80803E9
:103AF000207920B12671E06908B18047E66137B1CD
:103B0000C5F804610220C5F8080300F06BFA4046CE
:103B1000BDE8F04100F058B8BDE8F0815800002041
:103B200010B50AF0A1FB30B90AF0BFFB18B90AF0D2
:103B3000F2FB002802D002490220086010BD0000FC
:103B4000340C004070B500F091F900F09FFA094C78
:103B50004FF0804530B1FFF7E3FF012028610420DA
:103B6000A07204E00320A0720120C5F80403002025
:103B7000E07170BD5800002070B5124CA079E0B122
:103B8000E179401E814218DA00F080FA054600F023
:103B900069FBA179012902D9E179491CE1710DB1D3
:103BA000616900E02169411A022902DA11F1020F6C
:103BB00007DC0DB1606100E02061BDE87040FFF7F7
:103BC000C1BF70BD580000202DE9F04706464FF0F8
:103BD00080454FF4867128460AF09CFA80464FF4DF
:103BE000887128460AF096FA274C8246277804F115
:103BF00008000AF003FB10B140F2B91116E04FF0D3
:103C0000010946B1A07A032805D10420A072FFF76C
:103C100087FFC5F810900026B8F1000F18D0C5F83E
:103C20000C61A07A042804D040F2CB116D2000F082
:103C3000A5FA0AF019FB28B90AF037FB10B90AF007
:103C40006AFB08B1114806600220A07200F0F2F889
:103C5000BAF1000F08D0C5F81061A07A022801D18E
:103C6000FFF78AFFC5F814903FB12670A07A0228AA
:103C700001D1FFF767FF00F0DDF8BDE8F04702482B
:103C800008300AF0D2BA000058000020340C00407E
:103C90002DE9F0475F4C00270646A76142788178FE
:103CA0000078E0726271A171E7714FF001084FF086
:103CB0008045052825D2DFE800F010030620220009
:103CC000C4F8188009E000F0D1F8012128460AF074
:103CD00026FA0028F9D00220A0610AF04CFAB0B10F
:103CE00000F0EEF9217E01F0030188420FD1B07996
:103CF00050B10220C5F8040370E04748ECE747489C
:103D0000EAE740F23A314DE000F0AEF966E0C5F87E
:103D10000C804FF4827AC5F80471A069C5F81805C3
:103D20000AF08EFA40B90AF095FA28B90AF0A9FA11
:103D300010B90AF0BAFA38B14FF08050D0F8440206
:103D40003749C0F3423008600AF07AFA40B90AF005
:103D500081FA28B90AF095FA10B90AF0A6FA18B152
:103D60002F491031C1F80080C5F808800220C5F83D
:103D70000403B07990BBD5F8040310F0020F0FD004
:103D8000DFF8A090D9F80010C94341F3001101F108
:103D90000108D9F8001041F01001C9F8001007E03F
:103DA00040F2FB216D2000F0E9F900BF00F020FB9C
:103DB000514628460AF0AEF90028F7D000F054F931
:103DC000B8F1000F05D1D9F8001021F01001C9F8A1
:103DD00000100220C5F80803C5F80471A07970B17D
:103DE000307860B900F052F9064600F03BFA6FF007
:103DF000004116B1C4E9041001E0C4E90401012145
:103E000028460AF08CF908B100F03AF9A772BDE82B
:103E1000F0870000580000200100020001000300AC
:103E20003C05004010ED00E00148C08970470000EB
:103E30005800002010B5EFF3108472B60A4841789C
:103E400029B14178491E4170417829B108E04FF409
:103E50008E716D2000F092F9807808B900F024F995
:103E6000002C00D162B610BD5800002010B5EFF351
:103E7000108472B606484178491C41704078012888
:103E800001D10AF063F9002C00D162B610BD000028
:103E900058000020054810B5C17821B100210171FA
:103EA000C170FFF7C7FF002010BD000058000020C0
:103EB00070B50C4CE17861B90125E570E061FFF760
:103EC000D5FF00F0E3F830B1E06910B18047002081
:103ED000E061002070BD4FF080402571C0F80453B0
:103EE000F7E70000580000202DE9F04105006FF0D1
:103EF00015003FD0297804293CD8002969783BD0A7
:103F0000002937D1A978002934D100200AF0CDF852
:103F100000200AF0BDF84FF080484FF0FF31C8F89C
:103F200008130026C8F80061C8F80461C8F80C61DD
:103F3000C8F81061144C6670A888A0810AF0FDF8DA
:103F4000012708B1E7706770012140460AF0E7F8E1
:103F500008B100F095F840F2F550E0812846FFF7EF
:103F600097FE677200200AF093F84FF0E021304688
:103F7000C1F80071BDE8F0810029FBD02029F9D8F3
:103F8000A9782129C1D9F5E7580000200148808986
:103F9000704700005800002010B50D480AF02EF9B7
:103FA0000B49083948B1012008704FF0E021C1F8F1
:103FB0000002BDE81040FFF759BF887A022801D1FE
:103FC000FFF7C0FDBDE8104001480AF02EB900001F
:103FD000600000200248807A002800D0012070474D
:103FE00058000020F8B51F4DE87A00280FD1287E30
:103FF00000F003000AF0AFF8002808D0EFF31081BA
:1040000072B6FFF7E7FF18B1002900D162B6F8BD1C
:104010000126AE7201B962B618204FF08044C4F890
:104020000803A6614FF42070ADF80000BDF8000051
:10403000411EADF80010F9D20027C4F80C71C4F885
:104040001071084808300AF0ECF82F70FFF77AFD7D
:104050006661687900F07F00C4F838051820C4F85C
:104060000403F8BD5800002010B5044C207E00F079
:1040700003000AF070F80028F8D010BD58000020A6
:104080000149012008707047650300204FF080400F
:10409000D0F8000118B903480078002800D00120AA
:1040A00070470000650300204FF08040012141600F
:1040B0000021C0F80011014801707047650300201D
:1040C0000248006800F00300704700001C04004034
:1040D00010B531B1012907D040F2023105A000F03E
:1040E00021F8D0F8140401E0D0F8080400F0010031
:1040F00010BD00006E72665F636C6F636B2E6800AC
:10410000BFF34F8F05480168054A01F4E061114390
:104110000160BFF34F8F00BFFDE700000CED00E032
:104120000400FA0572B6034A526802B19047FFF7DD
:10413000E7FF000078000020064810B5002101606C
:104140000121016008460AF02DF8BDE81040012069
:104150000AF01BB8FC1F0040074810B50121416060
:10416000891EC0F808130C200AF01CF8BDE81040A6
:104170000C200AF00AB8000000C000400EB572B66C
:104180000F4A5568D5B1002203466E460A2403E063
:10419000B0FBF4F0521CD2B20028F9D1B05409E0BF
:1041A000B3FBF4F004FB1030B3FBF4F3521ED2B2B5
:1041B0003030B054002AF3D13046A847FFF7A0FFB3
:1041C000780000202DE9F041184C0646174660782B
:1041D0000D4618B14FF0FF30BDE8F081FCF794FBBD
:1041E00006B9134E67602570FFF7A6FFFFF7B4FF0F
:1041F0003046FFF779FE0600EED1FEF777FEFFF7B7
:10420000F1FE09F08AFE284609F0BFFF0120002DCB
:1042100009DB05F01F0100FA01F16A09920002F1C1
:10422000E022C2F8001160703046D5E77800002027
:10423000C651010001484078704700007800002016
:10424000074890F90000002809DB00F01F02012157
:1042500091404009800000F1E020C0F80012704752
:10426000780000202DE9F04101264FF0E0223103D3
:104270004FF000084046C2F88011BFF34F8FBFF3E4
:104280006F8F164CC4F800010C2009F0AAFF144DE2
:104290002868C04340F30017286840F010002860E9
:1042A000C4F8046326607F1C02E000BF00F0A0F8A1
:1042B000D4F800010028F9D01FB9286820F01000B8
:1042C0002860084805686660C4F80863C4F800817F
:1042D0000C2009F086FF2846BDE8F08100C00040B0
:1042E00010ED00E008C5004010B5024605200C495D
:1042F00004E000BF01EBC0031B7933B1401EC0B224
:10430000F8D248216920FFF739FF41F8302001EB4E
:10431000C00100224A718A7101220A7110BD000099
:10432000641A002010B5052801D3582106E00A4977
:1043300001EBC0000179012903D059216920FFF761
:104340001DFF41798279491CC9B28A4200D041716E
:10435000BDE81040FFF774BF641A002010B50528AF
:1043600003D34F216920FFF709FF034A002102EB25
:10437000C000017110BD0000641A002070B5052551
:104380000E4E0F4C16E0217806EBC1000279012A8F
:1043900008D1427983799A4204D04279827156F8E1
:1043A000310080472078401CC0B22070052801D31E
:1043B000002020706D1EEDB2E5D270BD641A0020A1
:1043C0006603002000B509F03BFF40B909F042FF49
:1043D00028B909F056FF10B909F067FF08B1024883
:1043E00000BD024800BD00000C05004000E7014090
:1043F00010B509F05AFF30B3EFF31080C8B10021B7
:1044000072B6124802680368C2F3001243F0100348
:1044100003604FF0E023D3F80042D3F804321C438A
:1044200000D040BF20BF00BF00BF00BF00BF12B11F
:1044300005E00121E4E7026822F010020260002991
:1044400000D062B610BD20BF10BD000010ED00E02E
:104450000149096889680847800000200149096806
:10446000096908478000002001480068406800474B
:104470008000002001490968096808478000002081
:10448000F3540100EB540100DF540100EF5401002C
:10449000E7540100094810B58178042908D0102993
:1044A0000AD0202908D040F2CD116B20FFF766FE1C
:1044B000102181706AF08AF810BD0000840000208D
:1044C0000B4810B5017831B1EFF3108472B68178E2
:1044D000102905D008E040F21B316B20FFF74EFE9B
:1044E00008218170FEF75AFB002C00D162B610BD86
:1044F0008400002070B5124C207858B1EFF310857D
:1045000072B6607948B1022809D04FF439716B2036
:10451000FFF734FE40F2D121F9E7012003E0A17852
:104520000020042901D0607102E060716AF03EF859
:1045300005B962B6E078BDE87040FFF7F3BE000051
:10454000840000200E4810B5017859B1EFF31081B6
:1045500072B642794AB1012A09D04FF443716B20F7
:10456000FFF70CFE4FF43F71F9E7022200E0002252
:10457000427101B962B6C078BDE81040FFF7D2BE03
:104580008400002010B5134C207810B140F28D212A
:104590001DE0002060700120A0700F484FF4C8514A
:1045A000016005210181B72141810C4941600C481E
:1045B000FFF79AFEE07000210A48FEF7C7FA207163
:1045C000202802D00120207010BD4FF427716B20ED
:1045D000FFF7D4FD8400002098140020FF3F420F15
:1045E0000DB700003DB60000114810B581780429D0
:1045F00001D0002010BD8079A8B1FEF7A1FE441CB7
:10460000012009F03DFD001B0002C11700EB116005
:104610000012002800DC00200649A0FB0101C00BAD
:1046200040EA414010BD044801684089081A10BDA5
:104630008400002040420F009814002070B50E4600
:10464000FEF77EFE00252E4C082E31D2DFE806F064
:1046500030043B3B211C4C410121022000F000F9B9
:10466000607858B10420A07026480068A060A57149
:10467000607902283FD069F099FF3CE02020A070CB
:10468000BDE87040FEF78ABA40F215216B20FFF7B3
:1046900075FD607800280BD0A078042809D04FF071
:1046A000E0210220C1F88001BFF34F8FBFF36F8F6D
:1046B00070BD00F073F818B11348D0F84401B0B9D8
:1046C00034F010F970BD0121022004E00120A07037
:1046D00070BD0121282000F0C3F860780028F5D0D3
:1046E000BDE8704000F096B800F058F818B1BDE889
:1046F0007040FFF7CFBEBDE8704000F057B8000033
:10470000840000209814002000B0004070B5EFF342
:10471000108472B6204D002069796871C1B30129F7
:1047200006D0022918D084F310884FF4D77128E0FE
:1047300084F31088687810B140F25B1121E0002109
:10474000142000F08DF801206870A878012821D18C
:10475000BDE8704000F05EB8697849B16870A8782B
:10476000082815D007DC022812D0042807D10BE056
:104770004FF4B67105E0102806D0202808D04FF479
:10478000C4716B20FFF7FAFC2020A870FEF706FA30
:1047900084F3108870BD00008400002002488079F6
:1047A000012800D0002070478400002070B503204D
:1047B000FDF7DEFA154D2968814200D80846064605
:1047C0000321FDF7F7F9124C012130B1012818D06F
:1047D0004FF4A7716B20FFF7D1FC2868B042A068A6
:1047E00006D1FEF7F5FA2868A1680844A06070BDFC
:1047F0003044A060A1716989401ABDE87040FEF79D
:10480000E7BAA1716889A168081AF6E79814002030
:104810008400002010B5182200210F4809F0FFFD88
:104820000D4801210170002101810321817200F1F5
:1048300018010A68426049680161084802218170D4
:1048400005490079FDF7E8FB002804D14FF4837196
:104850006B20FFF793FC10BD801400208400002023
:104860000B4A10B5927812B1531E1A4201D0E021C2
:1048700009E021B10240900608D1E52103E082431E
:10488000900603D1E9216B20FFF778FC10BD0000F2
:1048900084000020014901208870704790000020AA
:1048A00075550100AD550100975501008555010072
:1048B000915501007F5501007355010071550100AC
:1048C000A95501009D5501008B5501007955010046
:1048D0006B55010063550100675501005D550100EE
:1048E00001480068C06B0047A4000020014A12681C
:1048F000126B1047A4000020014909688969084724
:10490000A40000200148006800680047A4000020BF
:104910000148006840690047A4000020014A12686D
:10492000D2681047A400002001490968C96A0847F5
:10493000A40000200148006800690047A40000208E
:10494000014A126892681047A400002001490968D2
:10495000496A0847A400002001490968896A084794
:10496000A4000020014B1B685B681847A4000020CE
:104970000148007870470000670300202DE9F14FDF
:1049800003F11C0402EB840C4FEA930B8A68CB689A
:104990000868496800F046F93CE9F0006040694069
:1049A00072407B400BF1060E4EE083EA134480EA2E
:1049B000134582EA134746BA96EA3444604000F051
:1049C0000F1684EA063420F00F1684EA161054BA43
:1049D00094EA0106724002F00F1486EA043622F0CF
:1049E0000F1486EA14124CBA6540694001F00F14A6
:1049F00085EA043521F00F1485EA14115CBA67408A
:104A00007B4003F00F1487EA043723F00F1487EA82
:104A1000141344BA44404DBA4D4056BA56405FBA9A
:104A20005F4087EA174886EA174B84EA17464FEA41
:104A300038488BEA1B4485EA1B4788EA1B4580EA15
:104A40003440694072407B4000F0703400F08035A3
:104A500000F00F3040EA440040EAD50080EA9004BC
:104A600004F0332480EA8400604001F0703401F0E7
:104A7000803501F00F3141EA440141EAD50181EA74
:104A8000910404F0332481EA8401614002F070341F
:104A900002F0803502F00F3242EA440242EAD502C7
:104AA00082EA920404F0332482EA8402624003F032
:104AB000703403F0803503F00F3343EA440343EAD4
:104AC000D50383EA930404F0332483EA8403634028
:104AD000C943DB4381EA000483EA044686EA020113
:104AE00083EA014382EA334583EA14435C4084EA63
:104AF00000077FEA040A8AEA024A8AEA010B87EA87
:104B000011488AEA374A80EA060181EA1A418AEAAC
:104B1000030A04EA0A00454088EA040707EA0B0092
:104B200041408AEA0B0608EA060084EA34428AEA2F
:104B30003A4602EA060358404540414087EA374377
:104B40008BEA3B4003EA000985EA090582EA03098A
:104B5000464006EA0906714085EA010005EA354645
:104B6000464006EA314181EA304181EA364606EAAA
:104B7000304686EA354634400F4086EA010508EAA9
:104B8000050886EA3640024088EA020881EA314296
:104B900013405C4080EA020309EA030987EA090737
:104BA000674088EA040806EA0A0601EA0B018AEA75
:104BB0000B0425408AEA3A44204045408BEA3B4BAF
:104BC00002EA0B02564084EA0B04234059406E402F
:104BD000694087EA364080EA384080EA060380EA86
:104BE000104481EA134585EA344585EA17427D4041
:104BF00082EA354180EA05403CE9F00060406940C6
:104C000072407B40BEF1010E3FF6CFAE20BC00F0FB
:104C10005FF828606960AA60EB60BDE8F08F00BFB4
:104C200000F000BA80EA101404F0F01480EA0410D6
:104C3000604081EA111404F0F01481EA041161402B
:104C400082EA121404F0F01482EA0412624083EA49
:104C5000131404F0F01483EA0413634080EA102470
:104C600004F47F4480EA0420604081EA112404F4C3
:104C70007F4481EA0421614082EA122404F47F44E3
:104C800082EA0422624083EA132404F47F4483EA24
:104C90000423634081EA500404F0553480EA440060
:104CA000614083EA520404F0553482EA44026340CE
:104CB00082EA900404F0333480EA8400624083EA9C
:104CC000910404F0333481EA84016340704700BFEB
:104CD00082EA900404F0333480EA8400624083EA7C
:104CE000910404F0333481EA8401634081EA500482
:104CF00004F0553480EA4400614083EA520404F031
:104D0000553482EA4402634080EA102404F47F446C
:104D100080EA0420604081EA112404F47F4481EA9F
:104D20000421614082EA122404F47F4482EA0422CE
:104D3000624083EA132404F47F4483EA042363403B
:104D400080EA101404F0F01480EA0410604081EA54
:104D5000111404F0F01481EA0411614082EA121483
:104D600004F0F01482EA0412624083EA131404F09F
:104D7000F01483EA04136340704700BF2DE9F14F3C
:104D800094464FEA930B8A68CB6808684968FFF736
:104D900049FF0BF1060E33E083EA134480EA134522
:104DA00082EA134746BA96EA3444604000F00F1690
:104DB00084EA063420F00F1684EA161054BA94EAF6
:104DC0000106724002F00F1486EA043622F00F1436
:104DD00086EA14124CBA6540694001F00F1485EA66
:104DE000043521F00F1485EA14115CBA67407B404A
:104DF00003F00F1487EA043723F00F1487EA141323
:104E0000BCE8F0006040694072407B4000F0E03454
:104E100000F0103500F00F3040EA540040EAC500C1
:104E200080EA900404F0332480EA8400604001F0BA
:104E3000E03401F0103501F00F3141EA540141EA4C
:104E4000C50181EA910404F0332481EA84016140C0
:104E500002F0E03402F0103502F00F3242EA540260
:104E600042EAC50282EA920404F0332482EA840210
:104E7000624003F0E03403F0103503F00F3343EAEF
:104E8000540343EAC50383EA930404F0332483EA1A
:104E90008403634081EA324787EA134581EA354655
:104EA00090EA060484EA034B82EA1B4280EA044447
:104EB00084EA054483EA144A85EA14448BEA044BE5
:104EC00084EA374481EA0B4181EA164104EA0A0088
:104ED000454082EA04082BEA080041408AEA0B06B2
:104EE00002EA060084EA34438AEA3A4603EA0607FD
:104EF00078404540414088EA38478BEA3B4007EA22
:104F0000000985EA090583EA0709464006EA090619
:104F1000714085EA010005EA3546464006EA31411E
:104F200081EA304181EA364606EA304686EA35466D
:104F3000344008EA010886EA01052A4086EA36403C
:104F400003405A4081EA31431F407C4080EA030716
:104F500009EA070988EA0908544088EA020806EACB
:104F60000A0601EA0B018AEA0B0215408AEA3A4274
:104F7000104045408BEA3B4003405E4042401740B2
:104F800079404D404E40E443F64386EA18435D4085
:104F900085EA054083EA134386EA034183EA3842FF
:104FA00084EA114383EA04435FEA3343BEF1010E0E
:104FB0003FF6F2AE1ED4BCE8F0006040694072409B
:104FC0007B4020BCFFF784FE28606960AA60EB602C
:104FD000BDE8F08F2DE9E0414FF2F00280EA103198
:104FE000114080EA0130484041088208C3084FF070
:104FF000000E4FE700F0113001F0113102F01132D4
:1050000003F0113340EA410040EA820040EAC30065
:105010004FF2F00280EA1031114080EA013048403E
:10502000BDE8E0812DE9F04F02F11C050646074678
:1050300000EB850851F8040B043A46F8040BF9D14B
:105040004FF0010CFFF7C6FF5FEA302080EA0C004A
:105050001ECF41404A4053405C401EC6200046459A
:1050600017D04FEA4C0C1CF4807F18BFACF1E50C54
:105070002C2DE7D03C2D06D1FFF7ACFF06CF4140E9
:105080004A4006C6100006CF41404A4006C61000FE
:10509000D8E736E90F00FFF7C5FD043D86E80F00AD
:1050A000F7D1BDE8F08F00BF2DE9F00391E8F803D8
:1050B000B2E802105B1854EB0C04B2E802104D4148
:1050C00056EB0C0692E806104F4158EB020859EBDC
:1050D0000C0980E8F80380410130BDE8F003704717
:1050E0002DE9F00391E8F803B2E802105B1A74EBC3
:1050F0000C04B2E802108D4176EB0C0692E8061023
:105100008F4178EB020879EB0C0980E8F8038041C5
:105110004042BDE8F00370472DE9F003524290E8A9
:105120003800B1E880031740DB1918EA020854EB95
:10513000080419EA020955EB090538C090E878001F
:1051400091E8820311404B4117407C4118EA020864
:1051500055EB080519EA020956EB090678C08041AB
:105160000130BDE8F00370472DE9F003524290E8AA
:105170003800B1E880031740DB1B18EA020874EB23
:10518000080419EA020975EB090538C090E87800AF
:1051900091E8820311408B411740BC4118EA020894
:1051A00075EB080519EA020976EB090678C080411B
:1051B0004042BDE8F00370472DE9F00152424FF044
:1051C000030890E8300091E8C000A31B1340E41AE4
:1051D000F618EB1B1340ED1AFF1830C0C0C1B8F130
:1051E0000108EED104680E68A31B1340E41AF618F8
:1051F00004600E60BDE8F001704700BF00B592EC9E
:10520000070AB1E8005E07EE101A56EC102A58ECB7
:10521000117AA9FB0250AAFB0234E9FB6603EBFBFF
:10522000624340EC145AAAFB0605ECFB6235E9FB2D
:105230006740E9FB6830EEFB6250AAFB0721EAFBFE
:105240006851EBFB680112EE108AEBFB6632ECFB57
:105250006652EAFB6802EBFB681243EC154AA9FBB5
:10526000084312EE908AE9FB6803EAFB6813EBFB44
:105270006823EBFB6754EEFB660413EE108AE9FB30
:105280006814EAFB6824EBFB683406EE105A17EE4C
:10529000109A99E8000CACFB076511EE909AECFBB4
:1052A0006915EEFB6925EAFB6935EBFB694510EEF4
:1052B000109AEAFB6906EBFB691612EE109AECFBFA
:1052C0006926EEFB6936EAFB6946EBFB695610EE90
:1052D000909AAAFB0987EBFB692712EE909AECFBE8
:1052E0006937EEFB6947EAFB6957EBFB696711EE2B
:1052F000109AEEFB6918EAFB6928EBFB693813EE9C
:10530000109AECFB6948EEFB6958EAFB6968EBFB15
:10531000697800BD2DE9F04F07EE900AFFF76EFFA8
:1053200017EE909AA9EC054A89E8FF01BDE8F08FD5
:1053300000B591E8805FA7FB0750A7FB0834E7FBA7
:105340006803E7FB694340EC145AA7FB0905E7FB38
:105350006A35E8FB6840E7FB6A30E7FB6B50A8FB67
:105360000921E7FB6B51E7FB6C01E8FB6932E8FBC5
:105370006A52E7FB6C02E7FB6E1243EC154AA8FB8E
:105380000A43E8FB6B03E7FB6E13E8FB6E23E9FBC4
:105390006954E8FB6B04E8FB6C14E8FB6E24E9FB42
:1053A0006E3406EE105AA9FB0A65E8FB6C15E9FBA2
:1053B0006C25E9FB6E35EAFB6E45E9FB6A06E9FB05
:1053C0006B16E9FB6C26EAFB6C36EAFB6E46EBFBE0
:1053D0006E56A9FB0B87EAFB6B27EAFB6C37EBFBEE
:1053E0006C47EBFB6E57ECFB6E67EAFB6A18EAFB57
:1053F0006B28EBFB6B38EBFB6C48ECFB6C58ECFB65
:105400006E68EEFB6E7800BD2DE9F04F07EE900A56
:10541000FFF78EFF17EE909AA9EC054A89E8FF0185
:10542000BDE8F08F2DE9F00791E8F807B2E8021027
:105430005B1854EB0C04B2E802104D4156EB0C061D
:10544000B2E802104F4158EB0C08B2E8021059EBD9
:1054500001095AEB0C0A80E8F80780410130BDE8E9
:10546000F00770472DE9F00791E8F807B2E802105D
:105470005B1A74EB0C04B2E802108D4176EB0C065B
:10548000B2E802108F4178EB0C08B2E8021079EB19
:1054900001097AEB0C0A80E8F80780414042BDE838
:1054A000F00770472DE9F007524290E87800B1E824
:1054B00080071740DB1918EA020854EB080419EAC0
:1054C000020955EB09051AEA020A56EB0A0678C0EA
:1054D00090E87800B1E8800717407B4118EA02089D
:1054E00054EB080419EA020955EB09051AEA020A05
:1054F00056EB0A0678C080410130BDE8F0077047DE
:105500002DE9F007524290E87800B1E88007174093
:10551000DB1B18EA020874EB080419EA020975EBB0
:1055200009051AEA020A76EB0A0678C090E87800C4
:10553000B1E880071740BB4118EA020874EB080481
:1055400019EA020975EB09051AEA020A76EB0A065E
:1055500078C080414042BDE8F00770472DE9F00176
:1055600052424FF0040890E8300091E8C000A31BBD
:105570001340E41AF618EB1B1340ED1AFF1830C065
:10558000C0C1B8F10108EED1BDE8F001704700BF1D
:1055900000B592EC080AB1E8805707EE101A53ECF8
:1055A000102A56EC114AA7FB0251A8FB020BE7FB9D
:1055B0006310E9FB62B041EC145AA8FB0351EAFB0B
:1055C0006201E7FB64B5E7FB6605E8FB661505EEDF
:1055D00010BAA9FB03B6EAFB6316ECFB6356E8FBC3
:1055E000640BE9FB641BEAFB645BECFB646B05EE9C
:1055F000900AACFB023012EE104AEEFB6250E9FB5F
:105600006460EAFB64B0E7FB6431E8FB645112EECE
:10561000904AE8FB6461E9FB64B1EAFB640106EED1
:10562000103AA7FB043213EE104AE7FB6462E8FB72
:1056300064B2E9FB6402EAFB641211EE904AE9FBF2
:105640006453EAFB646313EE904AE7FB64B3E8FB40
:105650006403E9FB6413EAFB642306EE905A17EE39
:10566000109A99E8000610EE108AA9FB0854EAFB8C
:1056700068B412EE108AECFB6804EEFB6814E9FBD8
:105680006824EAFB683410EE908AEEFB6865E9FB5B
:1056900068B5EAFB680512EE908AECFB6815EEFB34
:1056A0006825E9FB6835EAFB684507EE106A11EEEC
:1056B000108AAEFB0876E9FB6806EAFB681613EE73
:1056C000108AECFB6826EEFB6836E9FB6846EAFBCD
:1056D000685611EE908AECFB68B7EEFB6807E9FBB1
:1056E0006817EAFB682713EE908AECFB6837EEFB3D
:1056F0006847E9FB6857EAFB686700BD2DE9F04F92
:1057000007EE900AFFF744FF17EE908A07EE90BA73
:10571000A8EC084A88E8FF00BDE8F08F00B591E8E2
:105720009857A3FB0352A3FB0401E3FB6420E3FBB4
:10573000671042EC145AA3FB0752E3FB6802E4FB38
:105740006415E3FB6805E3FB6925A4FB07B6E3FBEF
:105750006926E3FB6A56E4FB670BE4FB682BE3FB7B
:105760006A5BE3FB6C6B40EC151AA4FB0810E4FBCE
:105770006950E3FB6C60E3FB6EB0E7FB6721E4FB81
:105780006951E4FB6A61E3FB6EB1E4FB6E0106EE76
:10579000102AA7FB0832E4FB6A62E4FB6CB2E4FB6C
:1057A0006E02E7FB6E12E7FB6853E7FB6963E4FBFD
:1057B0006CB3E7FB6C03E7FB6E13E8FB6E2306EEAE
:1057C000905AA7FB0954E7FB6AB4E7FB6C04E8FBBB
:1057D0006C14E8FB6E24E9FB6E34E8FB6865E7FBBC
:1057E0006AB5E8FB6A05E8FB6C15E9FB6C25E9FB8B
:1057F0006E35EAFB6E4507EE106AA8FB0976E8FBFA
:105800006A06E9FB6A16E9FB6C26EAFB6C36EAFBE2
:105810006E46ECFB6E56E8FB69B7E9FB6907E9FBEE
:105820006A17EAFB6A27EAFB6C37ECFB6C47ECFB78
:105830006E57EEFB6E6700BD2DE9F04F07EE900A44
:10584000FFF76CFF17EE908A07EE90BAA8EC084AB3
:1058500088E8FF00BDE8F08F30B44FF0000310F887
:10586000014B11F8015B013A84EA050443EA0403A1
:10587000F5D1A3F101034FEAD37030BC704700BFEC
:105880004FF0000310F8012B013943EA0203F9D16C
:10589000A3F101034FEAD370704700BF30B411F891
:1058A000014B12F8015B6C4000F8014B013BF6D153
:1058B00030BC70472DE9F00391E8F803B2E802101C
:1058C0005B1854EB0C04B2E802104D4156EB0C0689
:1058D00092E806104F4158EB020859EB0C09894138
:1058E000013B74F1000475F1000576F1FF3677F1A4
:1058F000FF3778F1FF3879F1FF3951F1000113EBEF
:10590000D17354F1000455F100054E414F4158EB5D
:10591000010859EB010980E8F803BDE8F00370477E
:105920002DE9F00391E8F803B2E802105B1A74EB7A
:105930000C04B2E802108D4176EB0C0692E80610DA
:105940008F4178EB020879EB0C09894113EBD17395
:1059500054F1000455F100054E414F4158EB010848
:1059600059EB010980E8F803BDE8F003704700BF78
:105970002DE9F04F07EE900AFFF740FC5AEC359AFC
:10598000B9EB05097AEB060AB84171EB080172F12F
:10599000000273F1000374F100046BEB0B0B491967
:1059A00072417B4154EB08044BF1000557EC146A3B
:1059B00015EE108ABEEB0E0E59EB02095AEB030AE4
:1059C000604169415EF1000E96419F4178EB040809
:1059D00079EB05097AF1000A70F1000B71F1000C06
:1059E0006EF1010E16EBDE7657F1000758F1000854
:1059F00059EB0E095AEB0E0A5BEB0E0B5CEB0E0C2F
:105A000017EE900A80E8C01FBDE8F08F2DE9F04F37
:105A100007EE900AFFF78CFCB0E700BF2DE9F00716
:105A200091E8F807B2E802105B1854EB0C04B2E8F6
:105A300002104D4156EB0C06B2E802104F4158EBF4
:105A40000C08B2E8021059EB01095AEB0C0A894123
:105A5000B3F1FF3374F1FF3475F1FF3576F10006D1
:105A600077F1000778F1000879F101097AF1FF3A3E
:105A700051F100015B184C414D4156F1000657F1C0
:105A8000000758F1000859EBD1795AEB010A80E878
:105A9000F807BDE8F00770472DE9F00791E8F8072F
:105AA000B2E802105B1A74EB0C04B2E802108D41EC
:105AB00076EB0C06B2E802108F4178EB0C08B2E8E6
:105AC000021079EB01097AEB0C0A89415B184C4111
:105AD0004D4156F1000657F1000758F1000859EB07
