:1000000040480020991300001F5F00006D1300009E
:100010006D1300006D1300006D1300000000000060
:10002000000000000000000000000000C9100000F7
:100030006D130000000000006D1300006D13000040
:100040004911000049110000491100004911000048
:100050004911000049110000491100004911000038
:100060004911000049110000491100004911000028
:100070004911000049110000491100004911000018
:100080004911000049110000491100004911000008
:1000900049110000491100004911000049110000F8
:1000A00049110000491100004911000049110000E8
:1000B00049110000491100004911000049110000D8
:1000C00049110000491100004911000049110000C8
:1000D00049110000491100004911000049110000B8
:1000E00049110000491100004911000049110000A8
:1000F0004911000049110000491100004911000098
:100100007FB51F4B1F4AC3F80026C3F80426C3F867
:100110000826C3F80C26C3F81026C3F81426C3F823
:100120001826C3F81C2605F098F901A800F0F8FB82
:10013000154B1B68834200D0FEE74FF4E0410020DE
:1001400006F05BF900B1FEE769469DF8080005F08E
:1001500072F9009B039C1C44019B1D8900F08CFDDF
:1001600066194FF02002EFF3118382F31288BFF378
:100170006F8F635983F3088873689847FEE700BF61
:10018000000001403546526E280100201FB50C4684
:10019000014601AA044806F0A8F818B9019B23609B
:1001A000029B636004B010BD5C6800002DE9F04F55
:1001B0001E46DBB0824BDDF8A0B1D3F80080DDE94C
:1001C0006657144600F022FD7E4B0122C3F800253D
:1001D0003AA804F06FF835B1002F04DD3A462946FD
:1001E0003AA805F029FD638927891F44E3684FF089
:1001F00000091F444F4525D80DA93AA804F0CCF8B2
:10020000704B0022C3F80025C3F80025BBF1000F96
:1002100004D020220DA9584605F0AFFE002300931C
:1002200032464FF6FF73214607A805F017F9054639
:10023000D0B930460C9C05F00AFA84421FD94FF021
:10024000FF3511E0659B649AA7EB090A9A4528BF20
:100250009A4653464946304605F0E5FD054638B115
:10026000584B0022C3F8002528465BB0BDE8F08F4C
:10027000649952463AA805F0DFFCD144BAE7DFF8AA
:1002800050B1DFF840914FF0FF370DF1160305AA8A
:1002900006A907A805F030F9041EC0F28F8040F0CF
:1002A0008280BDF816A0BAF1100F18D1BDF8145015
:1002B000202DC4D106992B463AAA304605F0B3FD4D
:1002C000044600287AD12A463AA90DA805F08CF9EF
:1002D00005463D4B1B688342C6D10125D5E7BAF1DF
:1002E000010F3ED1BDF81430202BA8D806993AAAA8
:1002F000304605F098FD044600285FD19DF8143083
:100300000293202B09D8DBF80030304F0393039B76
:100310009C4205DB0023C9F800354FF0FF341CE098
:1003200000F074FCC9F800A51DA803F0C3FF7A68AB
:1003300057F8081B12681DA805F07EFC15A91DA81A
:1003400004F02AF80022C9F80025029A3AA915A853
:1003500005F0ECFD18B9C9F80005274695E701340A
:10036000D5E7BAF1220F90D17B1C8ED0DBF800309C
:10037000BB4215DDBDF81430802B3FF660AF069907
:100380003AAA304605F04FFD0446B8B9FFB2BDF8B1
:10039000143000973AAA20210DA800F01BF88046DF
:1003A0004FF0FF3771E745B1074B1B6843451CBF52
:1003B000034BD3F80080454656E70124254653E712
:1003C0000000002000A00250280100204C6A00001C
:1003D000486A00002DE9F04196B017461D469DF889
:1003E0007020354B0E4653F83210019103EBC203D7
:1003F00080465B68186802AA0144302301A805F012
:10040000A9FB20B14FF0FF3016B0BDE8F081DDE967
:1004100001431C4403AA06AB214601A805F0C2FB18
:100420000028EFD1049A072AECD12449059805F059
:100430007DFD0028E6D1079A082AE3D120490898D3
:1004400005F074FD0028DDD102AA214601A805F0BF
:1004500095FB0028D6D1DDE9013213449C42D1D16D
:10046000412ACFD13D44302303AA294602A802974E
:1004700005F070FB0028C5D1DDE9023213449D422E
:10048000C0D32A4602A906A805F082F80028B9D1EF
:100490002A4602A90EA805F07BF80028B2D1202E2A
:1004A000B0D101990B78042BACD1334606AA0131A7
:1004B000404600F0C3FBA7E74C6A0000F36D000064
:1004C000EA6D00002DE9F04186B00323DFF86C806F
:1004D000ADF800300D466F46002617F8010B01A954
:1004E00000F00AFD0446A0B901988168102302AA11
:1004F000103905F098FC0446019805F093FC44B9C6
:100500001022414602A805F011FD40B12EB14FF076
:10051000FF34204606B0BDE8F0810126DDE70198F2
:1005200005F079FF0423A0F108012A46019805F09F
:100530007AFC0446019805F075FCEAE7DA6D0000E4
:100540002DE9F041324B88B0064600200C461D686C
:1005500004F077FF06A9C0B200F0CEFC002852D10B
:10056000214604F06EFF2C2507A9C0B205FB0465E7
:1005700000F0C2FC00282ED02C27674306EB0708AA
:10058000069BD8F8101011F0100133D14FF480728F
:100590000192204A0092CDE903112A4602910846B1
:1005A000FFF704FE05461C4BF25906989A420CD1FF
:1005B000D8F80C20B8F808309B1806D2826893420D
:1005C00003D2164B1B68AB421AD0C4B1826800211B
:1005D00005F053FC13E0079805F06CFC07460798FC
:1005E00005F020FC6B1EEA1C13F8011FB942C3D1B1
:1005F0009342F9D1069914B1304605F0F8F8012577
:10060000069805F00FFC284608B0BDE8F08100BF51
:1006100000000020F41600203DB8F39628010020C9
:1006200073B50D46044600212846CDE9001105F0BA
:100630009DF8F0B1124E2368B34203D101AA2046BF
:1006400005F028F8E36AB34204D16A460121204646
:1006500005F020F8DDE90032934288BF0193019B49
:10066000AB602046019A294600F0E0F9002002B074
:1006700070BD05F10801FFF725FFAB680193F0E7B6
:100680003DB8F3962DE9F84FDFF878B01B4C1C4DC0
:10069000884691469A4600260B9B9E4201D3002035
:1006A0000FE00B9B174A9F1BB7F5806F28BF4FF4D5
:1006B00080673B4606EB0A01404605F0B4FB10B1EB
:1006C0000120BDE8F88F0A993B465A467118484602
:1006D00005F0BEFB0028F3D1C4F800563E44C4F830
:1006E0000456C4F80856C4F80C56C4F81056C4F89A
:1006F0001456C4F81856C4F81C56CDE70000014043
:100700003546526E2C1100202DE9FF41814B43628A
:100710000E46814B036500210446084604F091FE15
:1007200004F12001C0B200F0E7FB0121002004F039
:1007300088FE04F14C01C0B200F0DEFB0546204605
:1007400004F0E9FF002848D100221146204604F0B9
:100750008BFF002858D1204605F06BF9002853D0B4
:10076000684604F0FAFF6946204605F094F8002830
:100770004AD1684604F0FAFF80F001016A46C9B226
:10078000204604F071FF0246F0BB684604F0EEFF1D
:100790000746E8BB69462046FFF742FF9DF8073051
:1007A00084F85830033B012B06D8384605F0C2F8D0
:1007B00010B1FF2384F858309DF80730023B022B1C
:1007C00006D8002005F0A4F810B1FF2384F85830B3
:1007D00094F85830FF2B12D1FEE70123984284F899
:1007E0005830B1D194F858308DF80730042B36D8F2
:1007F000012B3AD851D0FF2384F858304DE06A4697
:100800000021204604F030FF012384F85830E9E746
:100810009DF80780B8F1010F15D1104602F040F89D
:10082000831E022B07460BD841462046FFF788FE61
:100830003A4B1B68984203D0012814BF05270127B3
:1008400084F85870CEE701212046FFF779FE334B3C
:100850001B6898420CBF9DF807300523D5E7052B90
:10086000C9D1002005F066F812E069462046FFF77E
:10087000D7FE94F85830DA1E012A05460BD800201E
:1008800005F058F805460028B5D1002005F040F8DD
:10089000054610B1AFE7022BF7D094F85830FF2B84
:1008A00000D1FEE7012B10D06A460021204604F05B
:1008B000DBFE054648B1E06C05F0B4FA206A05F0AD
:1008C000B1FA284604B0BDE8F08100212046FFF7C8
:1008D00037FE0746DFF84480D8F8003083420FD156
:1008E00010220021684605F053FB206A04F0B3FD96
:1008F0003071236A5B683460D8F80050B360DAE77F
:10090000E06C05F08FFA206A05F08CFA002D08BF24
:100910003D46D6E72C0900202C01002028010020AC
:1009200038B5064D044660220021284605F030FB0C
:1009300021462846FFF7E8FE38BD00BF2C150020F1
:1009400073B516461D4643B15B79012B07D121B91A
:10095000204B2A681B689A4217D8002418E0022B03
:10096000FBD12B68012B07D91A4A12689342F4D89D
:10097000B1FA81F14909F0E7EFD131B10129ECD1A8
:100980002979023918BF0121E7E7436A5C68002131
:10099000002004F056FD01A9C0B200F0ADFA30B15C
:1009A0000124019805F03EFA204602B070BD2146B0
:1009B00001982023324605F036FA04460028EFD18C
:1009C000002DEED03468044BE41A18BF4FF0FF340A
:1009D000E7E700BF040000203DB8F39673B54B680D
:1009E0001446114A03F0FF23934206460D4618D1E0
:1009F0000B68012B15D16946204601F0FBFE9DF8DE
:100A00000030032B0DD12146304604F0F0FE204685
:100A100005F07AFDA968204604F00AFE204601F0A0
:100A2000C9FE02B070BD00BF000100042DE9F04F07
:100A3000436A0C465E6889B00546012100233344B1
:100A40009342084601F10101F9D3DFF8BC81C8F8EF
:100A50000000204604F08AFE98B1E86D04F0C6FD5F
:100A6000AB6A0022013B3244904201D9013BFAE7D4
:100A7000D8F800209A4204D30123E37109B0BDE8FD
:100A8000F08F06A9032000F037FA07A9012000F033
:100A900033FA079A21462846FFF7A0FF6379012B16
:100AA0000AD1D8F80070DFF85CB1D8F80030DDF872
:100AB00018908FB901232360022363710127D8F8AE
:100AC0000030DDF818A0BB4248D2504605F0AAF924
:100AD000079805F0A7F9D1E7226801339B1ABB42BA
:100AE0003AD36B6A196853F8370003EBC703012A3E
:100AF00053F8083CA3EB0103A0EB010A049311D1C6
:100B0000079B0393E368022B08D04946284604F06C
:100B10006EFE22464946284604F09EFE039928466A
:100B200004F065FE32465146484604F05EFE049BE2
:100B30004A464946CDE900A62846FFF7A3FD2146CF
:100B4000284604F020FE23680133236020B1DBF83F
:100B500000300133CBF80030013FA6E72368BB42E9
:100B60004DD86A6ADDF81CB052F837100491FB00CA
:100B7000083B11680391D1582A6DD0581368A0EB37
:100B800003092379012B38D1039B3246C91A5046F9
:100B9000059104F02AFE059900914B4652465946AC
:100BA00001962846FFF76EFD2146284604F0EBFD2E
:100BB0000223237118B1134A1368013313603246BC
:100BC0004946584604F011FEDDE9032351469B1ABD
:100BD000CDE900965A462846FFF754FD214628469F
:100BE00004F0D1FD2368013323600123237130B168
:100BF000044A13680133136001E0022BDFD0013790
:100C00005DE700BF8C1500200400002070B5094D81
:100C10002B780BB1002070BD074C0126C4F800658D
:100C200003F0EAFB18B92E70C4F80005F2E74FF0A4
:100C3000FF30F0E7F417002000A002502DE9F0414A
:100C4000DFF83080ACB01F4606460C461546FFF76D
:100C5000DDFF0123C8F800352A46334600972146B8
:100C600003A805F086FD0023C8F800352CB0BDE8C8
:100C7000F08100BF00A00250164A4FF0FF3301215F
:100C80005160C2F84833C2F8083302F5C0425160DF
:100C9000C2F84833C2F8083302F598325160C2F8FE
:100CA0004833C2F80833A2F508320021C2F8001513
:100CB000C2F8083302F51832C2F80015C2F808333A
:100CC000A2F51042C2F808354FF08042C2F808334E
:100CD000704700BF00B000402DE9F047058B044687
:100CE0002807904611D4022905F0070540F0CD8071
:100CF000204604F0BCFF78B10138218B042811D8BC
:100D0000DFE800F0C3106D85950001290CBF45F0A8
:100D1000100545F02005258388F31188BFF36F8FF8
:100D2000BDE8F08701F0070AAA4500F0A680002779
:100D3000B9463E46A368002B00F0BD8041F0080193
:100D4000218388F31188BFF36F8FA168002900F019
:100D5000BB800D68002900F0B780D1F804803346CD
:100D600052462046C047002D76D02B6829461D46A6
:100D7000F0E701F007035A1F012A1BD8002221F0D7
:100D80000701062B276889B2C4E9002209D13B4636
:100D900003E0628B013262831B68002BF9D141F0C2
:100DA00002012183204604F062FF00287BD041F03D
:100DB000200177E0042B0AD121F0070189B22183B9
:100DC000204604F054FF10B141F020012183218B13
:100DD00001F0070AAA4550D00027B946AAE72369BF
:100DE00021F0070141F00601062DD3F80090218380
:100DF0002DD1B9F1000F40D041F00801218388F3D3
:100E00001188BFF36F8F3A492046C84729E021F087
:100E10000701236941F0040189B2042DD3F804903D
:100E20002183E6D000273E464FF0040A82E721F0F6
:100E30000701236941F0050189B2052DD3F8089017
:100E40002183D6D000273E464FF0050A72E70027DF
:100E50003E464FF0060A6DE72B4687E7B9F1000FD3
:100E6000D1D14FF02003EFF3118883F31288BFF341
:100E70006F8F238B23F008032383258BEA062ED55F
:100E800025F01003238305F007056669218B002EEA
:100E9000BFF66FAF00232768C4E9003321F00701D4
:100EA00041F001012183218B01F0070AAA454FF08F
:100EB00000097FF43FAF002F9BD041F00801218350
:100EC00088F31188BFF36F8F002FC7D03D68394674
:100ED00033465246204604F0F6FE2F46F4E7AB06B2
:100EE0007FF51AAF25F02003238305F00705FFE601
:100EF000F35C000001F038BD70B5114B1C680D4665
:100F0000DCB1104B196800238B4202DB6FF001004B
:100F100070BD224612F8106B864202D0013314468F
:100F2000F2E7E06810B96FF01200F1E705F0EBFBB3
:100F30000028F8D02C600020EAE76FF00C00E7E70B
:100F400008000020586A000070B588B005460C46BD
:100F5000C0B269461646FFF7CFFF00281BDB00989A
:100F6000C8B143680293836822680195CDE90336CE
:100F70000023CDE906230593C56804F053FF6DB146
:100F80002846084901AA05F0B4F9079808B9059B55
:100F9000236008B070BD6FF01500FAE76FF0120023
:100FA000F7E700BFC35E0000014802F0CBBE00BF00
:100FB000EC6A0000014910220A60704710ED00E061
:100FC00072B6494081F3118820BF80F3118862B660
:100FD000704700BF40B2002807DB044A41090123E3
:100FE00000F01F00834042F82130704700E100E02C
:100FF00040B200280CDB4309064900F01F002033F3
:101000000122824041F82320BFF34F8FBFF36F8F3F
:10101000704700BF00E100E0054B420900F01F00EF
:1010200053F82220012303FA00F01040704700BF5C
:1010300000E100E040B20028A8BF00F1604001F1EB
:101040000101B8BF064B4FEA4111ACBF00F561404A
:1010500000F00F00C9B2B4BF195480F800137047F4
:1010600014ED00E030BFFFF7FDBF00BF144A08B524
:10107000144B22F07F029A60BFF34F8FBFF36F8F44
:10108000D3F8882022F47002C3F88820D3F888208F
:1010900042F4A002C3F888204FF04042C3F8342243
:1010A000BFF34F8FBFF36F8F0023E1EE103A02F0D2
:1010B00017FD02F05DFD00F063F902F01DFD00BFB9
:1010C0000000000000ED00E01EF0040F0CBFEFF385
:1010D0000880EFF30980816911F8021C0229FFD012
:1010E00001B504F014FF01BD10F1160F074B08D035
:1010F000984208D34033834205D98B4203D9044830
:1011000070474033F9E70020704700BF40200020BF
:10111000802000200446084611461A460023E1EECE
:10112000103A084B202583F3098863B64FF000037B
:1011300083F31188BFF36F8FA04785F31188BFF346
:101140006F8FFEE78048002001B5EFF30580A0F126
:1011500010004FEAC0000449014409C99847BDE89E
:1011600001400249084700008C680000711100002E
:10117000704700BF70B51D4B15469A6A9A6A9A6A05
:101180009207064622D5586B9A6A14061ED519B1E5
:101190009A6A22F080029A629A6A9A6A9A6A134C50
:1011A00012F0100F15D19B6A990712D40020A36A80
:1011B0000E4A9B0642BF636A23F400536362936A3C
:1011C00043F0FF03936200232B7070BD6FF0150096
:1011D000E2E763681A05E9D53146FFF785FF002885
:1011E000E4D080F309880220E1E700BF00ED00E0D1
:1011F0000D4B9A6A9A6A9A6A920508D59A6B9A6A0E
:10120000120404D518B19A6A22F400429A629A6ACA
:101210009A6AD205044A58BF9B6A936A002043F435
:101220007F4393620870704700ED00E070B54A4B51
:101230005B688AB00546C3F30803002686F311886D
:10124000BFF36F8F02F07F40B0F17F4F11D102F0FA
:101250000C0008280DD010074CBF0D4601260022B7
:10126000033B8DF80720032B4DD8DFE803F004651E
:10127000696D3546F3E7384BDA6A910743D4DA6A89
:10128000002A40DBDA6A52003DD55A69A96942F466
:1012900080725A61BFF34F8FBFF36F8F5A6931F875
:1012A000021C22F480725A61BFF34F8FBFF36F8F1D
:1012B0004DF60272914209D09A6AD2B242B10DF152
:1012C000070201212846FFF755FF0AE02C681BE0C2
:1012D0009A6A12F47F4F06D00DF107010120FFF743
:1012E00087FF044610E09A6AB2F5803F0BD39A6AF2
:1012F0009A6A9A6A9A6A9A6A9A6A9A6A6FEA024239
:101300006FEA12429A6200249DF8073093B92022B6
:10131000294602A804F031FE099BBEB1C3F30802BE
:1013200022B96FEA53236FEA4323099302A92046A7
:1013300004F0EBFD0AB070BD0DF107020021C1E71A
:101340000DF107010020CAE7034BD0E723F4FF7338
:1013500023F00103E9E700BF00ED00E0024A536912
:1013600043F010035361704700ED00E0EFF3088095
:10137000EFF3098101B57246FFF758FF01BD00BFC9
:10138000044800232021C2180133302B82F80013B7
:10139000F9D1704700E100E0002080F31488BFF32A
:1013A0006F8FFFF7A7FD00200D490860BFF34F8F37
:1013B0000C4880F3088800F02BF8202080F3118877
:1013C00009484FF40461401880F30988EFF3148052
:1013D0000221084380F31488BFF36F8FFFF746FEA6
:1013E00094ED00E040480020001800200749D1F8A3
:1013F00090200023C2F307221846934200DB704777
:10140000C1F89830C1F8A0000133F6E700ED00E024
:1014100008B572B6002383F31388FFF7E7FF144B78
:101420004FF0FF32C3F88020C3F88420C3F888202F
:10143000C3F88C20C3F89020C3F89420C3F89820F8
:10144000C3F89C20C3F88021C3F88421C3F8882105
:10145000C3F88C21C3F89021C3F89421C3F89821D4
:10146000C3F89C2162B6BFF34F8FBFF36F8F08BDE7
:1014700000E100E0024B034A0348022100F060B89B
:101480000000042000000020F46A0000F0B5204EA7
:1014900000258D4239DA446874B353B104F1FF3C3E
:1014A00014EA0C0F2FD11F2C2DD907681CEA070F47
:1014B00029D1202C0768D0F808C05FFA82FE1ED917
:1014C000B4F1004F1DD8013CB4FA84F4C4F11F04F8
:1014D0006400BEF1070F4CEA040C14D827F01F0477
:1014E000144344F01004C6F89820C6F89C404CF011
:1014F0000104C6F8A040013201350C30C9E70824C8
:10150000E7E73E24E5E76FF015021046F0BD00BFA7
:1015100000ED00E0044B0522C3F89420BFF34F8F89
:10152000BFF36F8F704700BF00ED00E0BFF35F8F28
:10153000024B0022C3F89420704700BF00ED00E08A
:1015400010B5034C01232278FFF7A0FF207010BDD7
:10155000F517002014490868082810B521D8FFF7AE
:10156000E5FF124C49680022904201F10C0105D1BF
:101570000F4B1870FFF7CEFF002010BDC4F8982065
:1015800051F80C3C23F01F03134343F01003C4F83D
:101590009C3051F8043C43F00103C4F8A030013200
:1015A000E2E74FF0FF30E8E70C6B000000ED00E0F1
:1015B000F517002010B54FF02003EFF3118083F3EF
:1015C0001288BFF36F8F4FF0804301224FF080519C
:1015D000C3F87825D1F83041082C08D1D1F834115E
:1015E000052904D8074C615C09B1C3F838264FF0CF
:1015F00080430122C3F8802580F31188BFF36F8FE9
:10160000002010BD656E000020B1034B800143F047
:1016100001031847704700BF406A0000084B70B5CF
:10162000C31A0D4607499B100446594306484022F9
:1016300004F0D3FC2B4601462046BDE87040184715
:10164000A4150020B76DDBB61468000073B50C4C10
:101650000C4A4023041B00930D460B460A49A41074
:1016600061430646094804F0E5FC011E05DA3046F0
:101670002B4602B0BDE87040184702B070BD00BFF5
:10168000A4150020A7600000B76DDBB61468000049
:10169000002270B5012104461046FFF7CBFC0F482D
:1016A00001F0FAFA0E4B984215D104F062FF266958
:1016B0000C49304604F02CFB00280BDB0125356477
:1016C0002469084904F11C0004F022FB002801DB16
:1016D000E564002070BD6FF00400FBE71D170000FB
:1016E0000000AD0B2C6B000070B501460C230948BF
:1016F0004B43C418D4E90E5600224033A263184469
:1017000004F058FC2DB132462B460348BDE870402A
:10171000184770BDA41500201468000010B10128FE
:1017200004D07047034B1B6C5B0701D1FFF7DCBF94
:10173000704700BFA415002008B54FF02003EFF359
:10174000118183F31288BFF36F8F124A136843F03D
:1017500002001060DA0708D481F31188BFF36F8F9D
:101760000120BDE8084004F011BF4FF08043D3F8DA
:101770000C24D3F80C34D307EED5074804F01AFC38
:1017800081F31188BFF36F8F0020BDE80840FFF799
:10179000ABBF00BFF4150020E4150020094BBFF3D8
:1017A0005B8F53E8002F22F0020143E8001000286D
:1017B000F7D1BFF35B8FD30702D4012004F022BF1F
:1017C000704700BFF41500202DE9F8433649BFF3F8
:1017D0005B8F0746012251E8003F41E800200028C6
:1017E000F9D1BFF35B8F33B9304931484B60CB60DF
:1017F0008A6004F0A0FA7B1E012B2DD8012F07D19F
:101800004FF08043D3F81C3403F00303012B23D0A3
:1018100004F0A4FF054608BB264B1B78F3B14FF03C
:1018200080430222C3F808230646DFF88C904FF06D
:1018300080444FF00108D4F81834D4F81824D203A7
:1018400016D503F00303012B01D0012F10D12DB3C6
:1018500086F31188BFF36F8FBDE8F8834FF0200344
:10186000EFF3118683F31288BFF36F8F0125DCE756
:101870003046FFF7A5FBD4F81835002BDBD1D4F8A0
:101880000421002AD7D0C4F80431D4F80431C4F8B4
:101890001885C9F88081C4F80880CCE74FF08043F0
:1018A0000222C3F80423D7E7A015002090150020DA
:1018B000C0150020F917002000E100E030B54068B5
:1018C000057B01F01F04B2F5001F85B044EA451402
:1018D00005D1204601F064FC002005B030BD002594
:1018E000B2F5800FCDE9025514D1B3F1007F0CBFE2
:1018F000042305238DF808300023194602AA204648
:1019000001F08CFA1F4B984239D10121204601F099
:10191000FFFBE1E7B3F1C06F26D0B3F1007F14BF46
:10192000012302238DF808308368CB40D907E3D424
:10193000B2F1A07FE0D16209012A04F01F03124A2C
:1019400003F5E07318BF4FF0A04252F82330DB07D5
:10195000D2D40DF107052946204601F085FB0B4B3B
:10196000984203D00395C7E70323DBE7284601F03D
:10197000C9FB044B9842F5D06FF00B00ADE76FF058
:101980001500AAE70000AD0B000300500400AD0BEA
:1019900010B501F0A7FB044668B901F07BFB084BCA
:1019A00098420AD10748214601F058FB22460521FA
:1019B0000620FFF73FFB002010BD6FF00400FBE79F
:1019C0000000AD0BC9190000420970B5034602D0F2
:1019D000012A17D070BD0D4E326951680029F9D027
:1019E00003F01F0301250C689D400029F2D08A688E
:1019F0002A4002D04B68304698472CB123682146D4
:101A00001C46F2E7024EE7E72346F8E74468000089
:101A10002C6800002DE9FF4147683B7B01F01F0562
:101A200045EA43150E4628460DF10301144601F020
:101A30001BFB14F4403F80460BD1284601F0D8FB35
:101A40003D4B984503D19DF8030001F055FB002064
:101A50000CE00023194602AA2846CDE9023301F022
:101A6000DDF9354B984204D06FF0150004B0BDE8A5
:101A7000F081804503D19DF8030001F03DFBA303F5
:101A80004BD540F206332340B3F5837F19D00CD8F1
:101A9000062B17D004D8ABB1022BE5D1042311E0FB
:101AA000B3F5807FE0D101230CE040F202229342A3
:101AB00027D0B3F5407F26D0B3F5007FD4D10223E1
:101AC00000E007238DF8043084F48033C3F300432F
:101AD000E0068DF8053054BFC4F3401303232103FF
:101AE0008DF8063011D57A680123B340C2F8083565
:101AF000002201A9284601F03FFA0F4B9842A6D0D8
:101B0000B2E70523DEE70323DCE7620341BF0123DD
:101B10007A68B340C2F80C35EAE7E3064FF00003F9
:101B200054BFC4F3401403241A4601A928468DF873
:101B3000044001F073F9E0E70000AD0B00F17440E0
:101B400000F5A6000A289ABF024B33F910006FF087
:101B50000F007047C46D0000024B0B60012313603F
:101B6000704700BF146C000000487047A86B00006D
:101B700010B5084C23785BB902690749406801F049
:101B800079FDFFF7DBFFB0FA80F35B09237010BD2E
:101B90000020FCE7F71700207161000010B5084C29
:101BA00001F088FEA04205D101F0A6FE054B0022FF
:101BB0001A7010BD4CF2503004F0D6FDF0E700BFB3
:101BC0000000AD0BF71700200C4B994210B50446EE
:101BD0000FD14FF02003EFF3118083F31288BFF38E
:101BE0006F8F237833B10023237080F31188BFF304
:101BF0006F8F10BDFFF7E4F9EBE700BF0000AD0BFE
:101C00002DE9F04F804685B00F461C461646002A47
:101C100000F09280002B00F08D8000294268C0F215
:101C20008B809269CB18934200F28680FFF7A0FF69
:101C30000546002878D17D4205F00305A54228BF5E
:101C40002546734203F0030306F0030958BFC3F1AE
:101C50000009C9F1000909F00309A14528BFA146FF
:101C6000631BA4EB090424F0030423F0030AA24538
:101C7000C8BFA24603F0030BC8BFA3EB040BBAF125
:101C8000000F18D006EB09037A1951461846019344
:101C900004F031FD04460146D8F81000FFF794FF28
:101CA000274A94423CD14D4505D0019B52461946E6
:101CB000701904F04BF9C5B1C5F10409A7EB09028D
:101CC000042102A804F017FD04460146D8F81000CC
:101CD000FFF77AFF1A4B9C4222D109F108032A46EA
:101CE0000DEB0301304604F048F9BBF1000F16D0AC
:101CF00008217A1952440DEB010004F0FCFC044663
:101D00000146D8F81000FFF75FFF0D4B9C4207D14A
:101D10000AEB05005A4602A9304404F02EF9084C9B
:101D20002046FFF70BFF0546FFF738FF284605B0B2
:101D3000BDE8F08F1D46F9E76FF01505F6E700BF27
:101D40000000AD0B2DE9FF4705460E4698461746A5
:101D5000002A74D0002B72D0042B02D913F0030F89
:101D60006DD1B3076BD1002E6A6868DB926906EB10
:101D70000803934263D82846FFF7FAFE044650B999
:101D800004F046FA044660B1012004F041FA20460E
:101D9000FFF7D4FE0446FFF701FF204604B0BDE87C
:101DA000F087B8F1030F1CD832460421684604F0CE
:101DB000A2FC044601462869FFF706FF214B9C421E
:101DC00032D142463946684604F0D7F832460421FB
:101DD000684604F08DFC044601462869FFF7F4FECE
:101DE00022E007F06043B3F1005F24D0DFF854A095
:101DF000B8F1100FC14628BF4FF010094A463946C6
:101E0000684604F0BAF832461021684604F070FCC7
:101E1000044601462869FFF7D7FE544504D1B8EBC4
:101E200009084F444E44E3D1012004F0F1F9002C9D
:101E300008BF0446ABE7324641463846C9E76FF073
:101E40001504AAE70000AD0B2DE9F84F0D1ED0F8E0
:101E50000490804617465ADBD9F81830AA189A42DF
:101E600055D8C5F30B02002F51D0C7F30B03134312
:101E70004DD1FFF77DFE0446F0B904F0C9F90446E0
:101E8000D0B9DFF894A0D9F81830BB4219D104F0CA
:101E900035FCBB460646D8F810003146FFF794FEE5
:101EA000564524D1B7EB0B075D44ECD1012004F07B
:101EB000AFF9002C08BF0446FFF770FE2046BDE8CE
:101EC000F88FB7F5803F09D3ABB2ABB929460120F3
:101ED00001F066FD4FF4803B0646DCE7B7F5805F16
:101EE0000AD20C49D8F810000A4EFFF76DFE3046B2
:101EF000FFF724FE0446D9E7C5F30B000028F0D114
:101F0000294601F04DFD4FF4805B0646C3E76FF0B4
:101F10001504D3E70400AD0B0000AD0B70B54368AA
:101F20001D6A86B0044603AA0021284604F010FA70
:101F300000284ADB039B2A681979186800F062FBC5
:101F4000002842DB002201212920FFF773F8656891
:101F500022693049284601F08DFBFFF7EFFD00288C
:101F600033DBEB7A023B012B31D9AD7A033D012DF6
:101F70008CBF0025012504F030F9002825DBC2B212
:101F8000C0F38010854201AD23D1FFF707FE032681
:101F90000023CDE90263049320469F23CDF804D0AB
:101FA0008DF80C300595FFF7E3FD014668BB03A8EB
:101FB00004F0E2F80546FFF7F1FD45BB60683246E4
:101FC00069461C3003F0B2FF08BB06B070BD0125A6
:101FD000D1E70023012182F0400203A8CDE90213DA
:101FE000ADF80030CDF804D08DF8002005938DF8C1
:101FF0000C10049504F0C0F80028E6D104F0EDF8C8
:102000000028E2DBC307F9D4BFE7FFF7C7FD6FF095
:102010001200DAE771610000024B0B6001231360CC
:10202000704700BF1016002000487047306C000059
:1020300010B504F04BFB034C206004F043FB6060E0
:10204000002010BD101600204FF08042D2F810156D
:10205000D2F8103501F01E0123F01F030B4343F0AB
:102060000103C2F81035024B00221A70704700BFFE
:10207000F81700204FF08053D3F83031082B20D1CF
:102080004FF08042D2F81015CB071AD5D2F8103590
:1020900001F01E0123F01F030B43C2F81035D2F8E4
:1020A00008315BB1D2F8103523F01F030B4343F026
:1020B0000103C2F810356FF08B007047024B01220C
:1020C0001A700020704700BFF81700202DE9F0417A
:1020D0000D46164604F0F6FA31460746284604F047
:1020E000ACF828B3B5FBF7F307FB135303BBB6FB00
:1020F000F7F407FB1464DCB9B74213D804F0E2FA32
:10210000DFF834800746FFF7B5FF044668B9284674
:1021100001F07CF998F800300BB1FFF795FFF61B42
:102120003D44F0D12046BDE8F0816FF08B04F9E723
:102130006FF01504F6E700BFF81700202DE9F8430B
:102140000E463046194617461C4604F076F830B362
:1021500046EA040515F0030521D11CB3DFF84C90C5
:102160006319032BA6EB050807D80F4AD2F80034F1
:10217000DB07FBD50020BDE8F883FFF77BFF58B9EC
:102180007B1B4046196801F061F999F800300BB1EA
:10219000FFF75AFF043DE3E76FF08B00EBE76FF0CA
:1021A0001500E8E72046E6E700E00140F8170020C8
:1021B00070B5012383400E4ABFF35B8FDC4352E8C6
:1021C000001F01EA040542E80056002EF7D1BFF3D4
:1021D0005B8F4FF4803282400648C0F80823BFF37B
:1021E0005F8FBFF36F8F0B4214BF0120002070BDC3
:1021F0001C1600200010014011B3BFF35B8F0123B8
:10220000104A834052E800CF4CEA030C42E800C178
:102210000029F7D1BFF35B8F0B4A4FF48033834023
:10222000C2F80433094BBFF35B8F1B68BFF35B8FAE
:10223000C340DB0742BF064B4FF40032C3F8002116
:10224000704700BF1C160020001001401816002027
:1022500000E100E00D4B1868010A0006BFF35F8F34
:102260000B4BD3F80435181841F10001B3F5801F6A
:102270000AD2084BD3E90023904271EB030303D247
:1022800010F1807041F10001704700BF201600205E
:1022900000100140180100202DE9F74F14461D469B
:1022A0000746FFF785FF0090FFF7D4FFA04271EBD0
:1022B00005037AD2464B201A65EB0101984271F171
:1022C000000180F08180434B03EB0713D3E9022325
:1022D0009D4208BF944253D04FEA870A0AF1804AD0
:1022E00007F150090AF5883A4FEA89091FFA89F976
:1022F00024F07F4809F180494FF48033DAF8400533
:10230000354A09F58839BB404646D2F804B5A0EBFA
:102310000B0020F07F402BF07F410128CAF84015C8
:1023200005D10193132004F01FFA2B4A019B0BF1F6
:10233000020CA6EB0C0020F07F40B0F5000F88BF28
:1023400066460020C9F80000D9F80000C2F84433FE
:1023500026F07F40CAF84005D2F80405834506D030
:10236000301A023820F07F40B0F5000F1BD8A6EBE2
:10237000080626F07F46361945F1000334461D460F
:1023800014490C983B0101EB0712C8500D9B536098
:10239000C2E90245002438460099FFF72DFF204688
:1023A00003B0BDE8F08F3046AFE701230B4ABFF31F
:1023B0005B8FBB4052E8000F184342E80001002940
:1023C000F8D1BFF35B8FDBE76FF01504E3E700BFE5
:1023D000010000010001002000100140181600203B
:1023E00073B51A4B1A4D00244FF0FF304FF0FF31F8
:1023F000C5F80845C3E902014FF48033C5F804333A
:10240000144B02264FF400320121C5F80463112059
:10241000C3F880212246FEF70DFE1120FEF7DAFDFB
:102420000D4A0123AB602B601360D5F804250B4BDC
:10243000009302F58072234601942046FFF72CFF9B
:102440003046FFF7C1F9204602B070BD0001002000
:102450000010014000E100E01C1600206124000093
:102460002DE9F74305462948D0E9001C541A22F00B
:102470007F4624F0FF0263EB0C075118A6F500120B
:102480004CEB0703B2F5400FC0E900133AD2204AE3
:102490001268100A120612EB06081E4A40F10009E3
:1024A000C2E900894FF0010811F580724FF0000178
:1024B00001911949009143F100032846FFF7ECFE12
:1024C000B4F5807F77F100072CBF0120002001F0D8
:1024D0009FFBAB0003F1804303F58833D3F840251D
:1024E00096420CD1B8F1000F03D14FF40002C3F8AB
:1024F00040250A4A4FF48033AB40C2F8443303B05E
:10250000BDE8F0834FF00008CEE700BF10010020C7
:102510002016002018010020612400000010014056
:102520002DE9F743334CD4F804339A070BD5D4F88C
:10253000043143B1304A0023C4F80431D4F80431E3
:102540001368013313604FF02003EFF3118283F31C
:102550001288BFF36F8FD4F80433DB0329D5BFF3A0
:102560005B8F264B53E8001F21F0010043E8000574
:10257000002DF7D1BFF35B8F11B9D4F84031C3B14F
:102580000025C4F84051D4F8403182F31188BFF3DC
:102590006F8FFFF75FFE4FF02003EFF3118283F39D
:1025A0001288BFF36F8F164BD3E90267B042B9416F
:1025B00006D282F31188BFF36F8F03B0BDE8F083BA
:1025C0004FF0FF384FF0FF39D3E90010C3E902891B
:1025D0001D604FF48033C4F8483382F31188BFF391
:1025E0006F8F0029E9D0009032463B462846884745
:1025F000E3E700BF0010014020160020181600205D
:10260000000100202DE9F0415A4E00EB8101012725
:10261000814202D10020BDE8F081046804F07F030C
:10262000C4F343257F2B4FEA144408BF4FF0FF3318
:10263000222C00F29B80DFE804F0122429442C4075
:1026400044999999994770999999999999999999CA
:10265000737B7E81999999848A8D90939600C2F8B4
:102660000C354FEA531CBCF1010F03F01F0414BFDB
:102670004FF0A04CB44607FA04F4CCF80845012406
:1026800002E0C2F814350024A64624E0C2F808355A
:10269000E7E7C2F8083500244FEA531EBEF1010FE8
:1026A00014BF4FF0A04EB64603F01F0C07FA0CFC07
:1026B000CEF80CC54FF0010E0DE0C2F80C35012428
:1026C000EAE7C2F81035DEE7C2F80835002DDAD1A6
:1026D0000024A646062550F804CB0CF40058B8F1A7
:1026E000000F4FEA0525CCF3C11803F01F0C4FEA89
:1026F00053131CBF01244FF0000E45EA8805012B3F
:102700000CBF33464FF0A04345EA0E050CF5E07CC4
:1027100045EA440543F82C507AE7C2F80C35D5E772
:10272000C2F860350468C4F38034002CC7D098E741
:10273000C2F86435F6E7C2F86835F3E7C2F86C35DD
:10274000F0E7C2F8243501244FF0000EC3E7C2F8C9
:10275000283586E7C2F83035F5E7C2F83435F2E7B8
:10276000C2F83835EFE7C2F83C35ECE76FF085008A
:1027700051E700BF0003005030B50C490C4D0B6809
:102780000246002405EB0310D0F80808C0B218B9BF
:1027900004B10B60002007E00133072B4FF0010468
:1027A000F0D90B606FF01B00136030BD24160020C1
:1027B00000E0014030B5816885B0103921F0070490
:1027C000054603F077FB10220146684603F0E0FB64
:1027D00007491022684603F0D0FB10236A462146C1
:1027E000284603F035FB003818BF012005B030BD86
:1027F000DA6D000030B50D46816887B0102302AA5B
:102800001039044603F00FFB002802DA012007B05C
:1028100030BD102202A9204603F011FE00283AD153
:102820001E49102202A803F081FB00280CBF0123DF
:1028300002232B70204603F0EEFD012301460DF12B
:102840000702204603F0EFFA0028DFDB9DF807308F
:1028500003F00F021B096A702B7101220DF10701B1
:10286000204603F0ECFD10B96B78042B03D901234B
:102870006B7000232B71A268183A22F00702083A05
:10288000A91C204603F0EEFD0028BFD1E91C20461C
:1028900003F041FEBBE70323CBE700BFDA6D000086
:1028A0007FB50320694603F03CFE98BB02A90120D6
:1028B00003F037FE01282BD103238DF808308DF863
:1028C0000B309DF800509DF80860194A00241078DC
:1028D000294603F0A6FD18B35078314603F0A1FD58
:1028E000F0B19378042B03D09DF80310994217D1CF
:1028F000D378042B03D09DF80B10994210D1137993
:10290000042B09D15079831E022B03D804B070BD6B
:102910000028D6D0FF20F9E79DF802109942F1D0A7
:102920000134032C02F10602D1D10120EEE700BFF1
:10293000BD6E00004FF08053D3F83021082A06D135
:10294000D3F83431052B02D8024AD05C70470020FE
:10295000704700BFD56E0000024AD2F80034002B49
:10296000FBD0704700E0014010B54FF08053D3F822
:102970003021082A4ED14FF080420021C2F80C11BC
:10298000C2F81011C2F8381502F54042D3F8041409
:10299000C2F82015D3F80814C2F82415D3F80C1483
:1029A000C2F82815D3F81014C2F82C15D3F8141453
:1029B000C2F83015D3F81814C2F83415D3F81C1423
:1029C000C2F84015D3F82014C2F84415D3F82414E3
:1029D000C2F84815D3F82814C2F84C15D3F82C14B3
:1029E000C2F85015D3F83014C2F85415D3F8341483
:1029F000C2F86015D3F83814C2F86415D3F83C1443
:102A0000C2F86815D3F84014C2F86C15D3F84434F2
:102A1000C2F87035FFF78EFF18B1434B434AC3F835
:102A20008C26FFF787FF18B1414BFB22C3F818250E
:102A3000FFF780FF70B14FF080414FF08053D1F825
:102A4000E42ED3F8583222F00F0203F00F031343A1
:102A5000C1F8E43EFFF76EFF20B1364B4FF4007231
:102A6000C3F840264FF08053D3F83031082B09D1FA
:102A70004FF08043D3F80024D20744BF6FF0010227
:102A8000C3F800242C4AD2F8883043F47003C2F80B
:102A90008830BFF34F8FBFF36F8F4FF08053D3F861
:102AA0003021082A0ED1D3F83431052B02D8234A1D
:102AB000D35C3BB14FF01023D3F808224FF0804392
:102AC000C3F858254FF01023D3F80022002A03DB67
:102AD000D3F80432002B22DA194901234FF01020D9
:102AE000C1F804351224FFF737FFC0F80042FFF7A2
:102AF00033FFC0F80442FFF72FFF0023C1F804356D
:102B0000FFF72AFFBFF34F8F0B490E4BCA6802F441
:102B1000E0621343CB60BFF34F8F00BFFDE70A4B6A
:102B20000A4A1A6010BD00BF0050004048810300EF
:102B300000F000400090024000ED00E0CF6E000089
:102B400000E001400400FA050C0000200090D003D2
:102B500070B501250268BFF35B8FB2FA82F3C3F14F
:102B60001F03DBB205FA03F422EA040450E8006F05
:102B7000964204D140E8004CBCF1000FF6D1BFF3FF
:102B80005B8FE7D101480B7070BD00BF0000AD0B3B
:102B900010B50368CB40DB0714D401238B400268D7
:102BA000BFF35B8F43EA020150E8004F944204D127
:102BB00040E8001CBCF1000FF6D1BFF35B8FEED1F3
:102BC000014810BD0148FCE70000AD0B0400AD0B4F
:102BD000F7B5044618B1012822D003B0F0BD4FF07C
:102BE00080430222C3F80823C3F80401D3F8042168
:102BF0000122DA60074601238DF8073042F2107592
:102C00004FF08046CCB1012CE7D1C7B3D6F80C34D5
:102C100003F001033B70D6F80C34DA0321D516E03B
:102C20004FF080430022C3F80803C3F80021D3F813
:102C3000002158600DF10707DDE7B7B1D6F8183469
:102C400003F003033B60D6F81834D803C5D59DF8CC
:102C50000700012803D103F08AFC013DD2D1012CE9
:102C6000BBD10C4B00225A71B7E7D6F81834D90300
:102C7000B3D5012003F07BFC013DF6D1ADE7D6F8DA
:102C80000C34DB03EDD5012003F071FC013DF6D1DE
:102C9000E7E700BF28160020044B1A7922B9012269
:102CA00018609A8002487047024870472816002032
:102CB0000000AD0B0C00AD0B10B54FF08043D3F806
:102CC00000216AB10022C3F80021D3F800210122BB
:102CD000C3F80823114B587910B95A711B689847EB
:102CE0004FF08043D3F8042172B10022C3F80421CD
:102CF000D3F80421D3F81824D3F81814920704D178
:102D00000122C3F818259A6010BD0222C3F80823D7
:102D1000024BBDE810401B68012018472816002010
:102D2000036803F01F025B09012B0260024818BF11
:102D30004FF0A040704700BF00030050034B083025
:102D400033F81000C0F34010704700BF100000209F
:102D500070B500F108030C4C34F81330DA05054661
:102D60000E4607D5C3F3432304EBC30254F83330B4
:102D700052689847A3682BB1E26831462846BDE8FF
:102D80007040184770BD00BF1000002010B4134AF7
:102D9000083032F81030D9051CD5C3F3432123F491
:102DA000F85322F8103002F10E04002034F8023FEC
:102DB00013F4807F03D0C3F3432399420AD0013038
:102DC0003028F3D1002342F8313005485DF8044B38
:102DD000FFF7DEBE5DF8044B704700BF1000002017
:102DE0008400002038B50246FFF7A8FF094C02F125
:102DF000080540B134F8153007495B0B03F5A273A1
:102E0000002041F823001046FFF7C0FF002324F8FC
:102E1000153038BD10000020006000402DE9FF4152
:102E2000044616461D4601B34E4F00F1080837F818
:102E300018309B0702D5FFF781FF10BB0023CDE9B7
:102E400000338DF80E308DF80F300DF10F020B4668
:102E500020460DF10E0103F0D7FB37F8183023F0B0
:102E6000020343F0010327F8183046B33D4B96F8B0
:102E700000C0726804F1080733F81710880702D5FC
:102E8000AAB139481DE021F02001C904C90C23F87A
:102E9000171062B1BCF1030FF3D872681678BCF159
:102EA000000F11D1314A06F5A27642F826C033F858
:102EB000172022F01C0242EA8C0223F8172045BB9F
:102EC0002B4804B0BDE8F081B20002F1804202F567
:102ED000C04241EA4631D2F8100520F00300C2F8A2
:102EE0001005D2F8100520F44F3020F44070C2F8DD
:102EF00010052002D2F810E500F47C5040EA0C40A6
:102F000040EA0E0041F0200123F81710C2F8100526
:102F1000CDE7D5E900672046FFF738FF002ECFD078
:102F2000104DD5E90023964201D19F4218D0114897
:102F30000DF10F01FFF70CFE0D4B9842C1D19DF82A
:102F40000F2045F8326005EBC20308345F6035F8A6
:102F5000143043EA422343F4807325F81430AFE77A
:102F60000022EEE7100000200400AD0B00600040DE
:102F70000000AD0B84000020F0B5044685B0154676
:102F800019B3334E00F1080736F81720930703D41E
:102F9000FFF7D4FE002858D112F01C0F02D04B7856
:102FA000012B52D001238DF80F300023CDE90013FF
:102FB0004A1C8B1C20460DF10F0103F025FB36F84F
:102FC000173043F0030326F8173015B9214805B030
:102FD000F0BD1F4E04F1080736F81700830734D5FB
:102FE00095F800C06146890020F0200001F1804181
:102FF000C00401F5C041C00C26F817000023C1F839
:1030000010356A78002AE1D0D1F81035AD7823F474
:10301000991323F4F853C1F81035D1F810E52302C1
:1030200003F47C53120402F4403243EA0E031343C8
:103030002A0502F4801240EA4C30134340F020008D
:1030400026F81700C1F81035C0E70348BFE700BFF6
:10305000100000200000AD0B0400AD0B014BC3E9D4
:10306000020170471000002008B50246FFF766FE17
:1030700038B1054B0548083233F812305B0B0B7042
:1030800008BD0348FCE700BF100000200000AD0BA6
:103090000400AD0B38B50F4C94F87850BDB96022E0
:1030A000294604F1100002F073FF0620FDF792FF9D
:1030B000094B0A48C3F87C51D3F87C214FF00042F9
:1030C000C3F80423012384F87830636738BD0448CB
:1030D000FCE700BF10000020006000400000AD0BC6
:1030E0000500AD0B034B93F87800003818BF0120A2
:1030F000704700BF1000002001460148FFF748BD9F
:103100008000002001460148FFF722BD800000201A
:1031100037B50446FFF712FE04F108021E4B33F8E0
:103120001230E8B113F002051AD15B0B9A0002F1DC
:10313000804000F5C24002F1804202F5C0420560C5
:103140000068D2F8100540F00100C2F8100529B15E
:10315000012202FA03F3114AC2F8043303B030BD6E
:10316000C3F38203042B12D0052B12D001A80194C3
:10317000FFF7D6FD019BD0F81015D94001F00101F1
:103180000231204603B0BDE8304003F086BA032187
:10319000F7E70221F5E700BF1000002000600040C3
:1031A00008B50246FFF7CAFDC0B102F108010E4B97
:1031B00033F81130990711D45B0B01229A409B0020
:1031C0000A4903F1804303F5C043C1F80823D3F84B
:1031D000102522F00302C3F8102508BDBDE8084001
:1031E0000021104603F059BA100000200060004092
:1031F00013B50E4B00F10802044633F81230DB071A
:1032000011D5FFF7CDFF2046FFF7ECFD01A8019493
:10321000FFF786FD019B03F5E073022240F82320AF
:10322000034802B010BD0348FBE700BF10000020B8
:103230000000AD0B0400AD0B2DE9F04F684B694861
:103240006949002687B0012234461D6835B1D0F89F
:10325000045315421EBF1C601D68164304338B4285
:103260004FEA4202F1D1DFF87C91D9F87C31002B92
:1032700000F099804FF0A043D3F820250492C3F8C2
:103280002025D3F820280592C3F820284FF0000805
:103290000DF1100A4FEA481300934FF0010B49E07B
:1032A000009B524A94FAA4F4B4FA84F41C44E00853
:1032B00004F10803039432F813701AF8003004F094
:1032C00007020BFA02F223EA02030AF8003003A80D
:1032D000FFF726FD039B03F5E073B90850F8233090
:1032E000C7F382054A072F46C3F301432CD5204676
:1032F0003946DDB2FFF72CFD03A80394FFF710FD5C
:10330000039B03F5E07350F82330C3F301439D4260
:1033100007D10021204603F0C0F92946204603F0DA
:10332000BCF903A80394FFF7FBFC039B0BFA03F320
:10333000C0F820355AF82840002CB1D1B8F1000F60
:103340001DD14FF00108A5E7022B0CD10321204627
:1033500003F0A3F905F00503012BE2D1394620461D
:10336000FFF7F6FCDDE702212046019303F095F913
:10337000032DF3D0019B032BD3D1022DEDE74FF0AA
:10338000A042C9F87C41D9F87C311949D2F82035DE
:103390000493C2F82035D1F8202505921343C1F8D3
:1033A00020257FF473AF012416B907B0BDE8F08F74
:1033B00096FAA6F3B3FA83F304FA03F29B0003F13F
:1033C000804303F5C04326EA0206D3F81005D3F87C
:1033D0001015C0F30520C1F30141FFF7B9FCE3E785
:1033E00000610040006000402061004010000020AB
:1033F00000030050044AD2F80034DB07FBD501601B
:10340000BFF35F8F704700BF00E001404FF0805373
:103410001A69B0FBF2F302FB130373B9084B0222E3
:10342000C3F80425C3F80805D3F80024D207FBD558
:1034300000220448C3F8042570470348704700BFC2
:1034400000E001400000AD0B0A00AD0B10B5054CCB
:103450000123C4F80435FFF7CDFF0023C4F8043579
:1034600010BD00BF00E00140036803F01F025B09CC
:10347000012B0260024818BF4FF0A040704700BF08
:103480000003005070B500F06044B4F1005F66D1F5
:10349000840764D1344D95F83040012C01D09C4212
:1034A0005FD12C6804BB022B304B0BBFC3F8102537
:1034B000C3F80425C3F81405C3F808050BBFC3F807
:1034C0001815C3F80C15082204220021C3F80011B6
:1034D00002F1804303F5243301221A60234AD2F813
:1034E0000031002BFBD00DE0AE68204C66B1022B02
:1034F000E8606961EA612BD1C4F81025C4F81405AD
:10350000C4F818151A4870BD022B85F830300CBF6E
:10351000082304232961AA61A86003F180430BBF3B
:10352000C4F81025C4F80425C4F81405C4F8080527
:103530000CBFC4F81815C4F80C150C49002203F58B
:103540002433C1F800210122C1F804231A60D9E70D
:10355000C4F80425C4F80805C4F80C15D2E70548DA
:10356000D1E70548CFE700BF3016002000900240A9
:103570000000AD0B0A00AD0B0B00AD0B38B5074DCD
:103580006424D5F8003133B90A2002F0F0FF013C81
:10359000F7D1034838BD0348FCE700BF0090024064
:1035A0000700AD0B0000AD0B084B9A685A621A6910
:1035B0009A629A69DA62DA689A6032B15A691A6173
:1035C000DA699A610022DA6070477047301600208D
:1035D00010B50E4B0238D3F83C26D3F838360728FE
:1035E00013D8DFE800F0110F0D0B0A080604100EC7
:1035F000C871100C8871100A48710A711A0ECA70CD
:103600001A0C8A701A0A4A700B7010BD00900240A2
:10361000023807281FD8DFE800F0292725112321C9
:103620001F04CB791B068A7943EA02434A7943EAAD
:1036300002230A7913430E4AC2F83C36CB781B06A4
:103640008A7843EA02434A7843EA02230A7813431A
:10365000074AC2F8383670470023E4E70023E5E75D
:103660000023E6E70023EBE70023ECE70023EDE788
:1036700000900240F7B56B4E96F830300446154680
:10368000002B40F0CA80C27C1AB1037D002B40F0B1
:1036900084802379FF2B00F0C3806079FF2800F03D
:1036A000BF80A079FF2800F0BB80E079FF2800F000
:1036B000B780002A42D101A80193FFF7D5FE019BF4
:1036C00003F5E07340F2023740F8237001A86379F4
:1036D0000193FFF7C9FE019B03F5E07340F82370E7
:1036E00001A8A3790193FFF7BFFE019B03F5E073E7
:1036F00040F8237001A8E3790193FFF7B5FE019B21
:1037000003F5E07340F82370237AFF2B08D001A85B
:103710000193FFF7A9FE019B03F5E07340F82370C6
:10372000637AFF2B0AD001A80193FFF79DFE019B4E
:1037300003F5E07340F2023240F82320237D63BB9F
:103740002379FF2B18BF1A46374B08BF4FF0FF32C3
:10375000C3F824256279FF2A08BF4FF0FF32C3F86F
:103760002825A279FF2A08BF4FF0FF32C3F8302581
:10377000E279FF2A08BF4FF0FF32C3F83425227ADE
:10378000FF2A08BF4FF0FF32C3F83825627AFF2ABC
:1037900008BF4FF0FF32C3F83C25234A2368C2F824
:1037A0004035237BE77AA07A9B0143EAC7030343B2
:1037B000607B43EAC013C2F84435D2F80006A37B0D
:1037C00020F07F4020F0FF000343E07B43EA0063EA
:1037D000207C43EA4063607C43EA0073C2F8003611
:1037E000E37C86F831300123C6E90015C2F80833BE
:1037F00011B12920FDF7EEFB0B4B01220021C6E998
:10380000021186F83020C3F80025C3F800111A60B1
:1038100003B0BDE8F040FFF7B1BE044803B0F0BD0F
:103820000348FBE730160020009002400500AD0B76
:103830000400AD0B70B51446194A92F83020012AE5
:1038400005462BD1174E0022C6F8002111B1407851
:10385000FFF7DEFE0123C6F80833AB786A781B0356
:1038600043EA02232A781343EA7843EA42332A7967
:1038700043EA82336A7943EAC233C6F83436FFF743
:103880007DFE094B984208D00023C6F800311CB1D8
:1038900068782146FFF79CFE044870BD0448FCE7A9
:1038A00030160020009002400700AD0B0000AD0B69
:1038B0000B00AD0B1FB50D4A02920DF1070200235C
:1038C000114602A88DF80730ADF80C30FFF7B2FFB3
:1038D000074B984206D19DF8073013F0010F054BB6
:1038E00018BF184605B05DF804FB00BF05020001D3
:1038F0000000AD0B0B00AD0B2DE9F0412920FDF7C9
:1039000077FB244B244DD3F8342602F44032B2F531
:10391000803F04BF214AC3F834264FF08051012272
:10392000C3F808231A61D1F83011082908BF5A6575
:10393000184B0022C3F80025C3F8002195F8312068
:103940001ABBD3F82405D3F82885D3F83075D3F8FB
:103950003465D3F83845D3F83C15C0B202F0BAFE4E
:103960005FFA88F002F0B6FEF8B202F0B3FEF0B2F1
:1039700002F0B0FEE0B2FF28C9B201D002F0AAFE08
:10398000FF2902D0084602F0A5FE002385F830305A
:10399000BDE8F081009002403016002000010300D5
:1039A0008B0721D1124A13681BB192F83030012BDA
:1039B0001CD1042382F830300E4BC3F81C150021B3
:1039C000C3F82005C3F800110121D960106840B97F
:1039D000D3F800110029FBD0012382F830300648CB
:1039E0007047C3F80413FAE7044870470448704767
:1039F00030160020009002400000AD0B0A00AD0B15
:103A00000B00AD0B10B5174BD3F80021E2B100222B
:103A1000154CC3F8002194F83020032A15D0042A4D
:103A200015D0022A04D1012384F82030FFF7BCFD11
:103A3000A36813B9012384F83030D4E900310020A1
:103A40009847002384F8203010BD0223ECE70322BE
:103A500084F82020D3F81C256262D3F8203584F83E
:103A60002830E5E700900240301600200F4B70B57B
:103A700053F82040013053F82060A64200D870BDB2
:103A8000D4E90035284698476DB138B10028B8BF51
:103A90004042EB68FF28A8BFFF201870EA685378FF
:103AA00043F0010353700834E7E700BF386C0000AF
:103AB00008B5094B012203201A70FFF7D7FF02F067
:103AC00057FE0420FFF7D2FFFCF71AFB034A137BD3
:103AD00023F00103137308BDF917002064160020BA
:103AE00008B50348034A0021121A02F033FE08BD4C
:103AF00000010020FC17002008B50020FFF7B6FFEA
:103B0000184B83F30888184C636943F400736361AE
:103B10000025E02384F82230E57725766576A576C2
:103B200084F82050636A43F4E023636284F82350EE
:103B3000FDF714FCFDF73EFA4FF0FF33A362E3629A
:103B4000FDF708FDFDF796FC02F0DCFD0120FFF714
:103B50008DFF0220FFF78AFF04482B462A4629469C
:103B6000FDF7D8FA4020002000ED00E0B13A000057
:103B700008B50648064A0749121A02F0EDFDBDE8ED
:103B80000840054A0549064802F0E6BD000000204D
:103B9000FE000020DC6E000000000000DC6E000073
:103BA00000000020034B1B680BB902F0CFBB0020C4
:103BB000704700BFD816002010B5094B1C689C4206
:103BC00004D1FFF7EFFF6FF0004010BDFFF7EAFFF1
:103BD000002CF8D0E368181A20EAE070F5E700BF7F
:103BE0008C00002048B1094B5B68984205D00368FF
:103BF0001BB1DA68C1680A44DA60D0E900321360A8
:103C00005A600023C0E90033704700BF8C000020D9
:103C10002DE9F04103464FF02002EFF3118582F3C6
:103C20001288BFF36F8F1F4EDFF88080D8F8000036
:103C30001D4933604045D1E9002705D020B1C46853
:103C40009C4213DDE41AC4609A1847EBE377002422
:103C5000C1E900273460FFF7AFFF214602F075FB92
:103C600085F31188BFF36F8FBDE8F081A2184FF084
:103C7000000347EBE477C360C1E90027FFF7B2FF19
:103C800085F31188BFF36F8F836898474FF0200347
:103C9000EFF3118583F31288BFF36F8F33681B1B1B
:103CA000C4E700BFD8160020200100208C000020AF
:103CB00010B50A4C23681BB101232360002010BDFE
:103CC00000F052F80028F7D00138062803D8044B3A
:103CD00053F8200010BD034810BD00BFDC160020C3
:103CE000506C0000FE8FFFFFBFF34F8F0549064B5E
:103CF000CA6802F4E0621343CB60BFF34F8F00BF8A
:103D0000FDE700BF00ED00E00400FA0510B40A4B27
:103D10000A490B4C4FF0FE32C3F800244968C3F83F
:103D20000424C3F80824C3F80C240023C4F8003585
:103D30005DF8044B084700BF00B00250940000201B
:103D400000A00250D0E90012014BC3E900127047F5
:103D50009400002038B131B1014400220346013003
:103D600088421A70FAD1704738B500F02FF820B1A8
:103D7000032400F063F8204638BD00F031F898B90C
:103D800000F0ACF898B90F4DD5F828391B0EF02B80
:103D900008D1D5F8242A0C4B9A420AD0072400F007
:103DA00017F8E6E70624FAE70424204638BD002485
:103DB000F5E7012000F092F804460028F7D1C5F895
:103DC0000C0AD8E700B002500000E0200020704745
:103DD00000207047014BC3F8040A704700B002503E
:103DE00010B5114800F048F800B110BD0F4800F0C0
:103DF00043F80028F9D10E4C204600F03DF8002889
:103E0000F3D10C4B0C481C6000F036F8014600283A
:103E1000EBD100F02DF8044608B1204610BD00F0AB
:103E20003FF82046FAE700BFA80000209C000020D1
:103E3000A4000020AC000020A000002008B5084825
:103E400000F024F8074800F021F8074800F01EF8B9
:103E5000064800F01BF8BDE8084000F00BB800BFB2
:103E6000A80000209C000020A4000020A00000204A
:103E700000207047704700BF08B5034B02681B68FD
:103E800010689847002008BDB800002008B5034B13
:103E900002685B6810689847002008BDB8000020E1
:103EA00070B5094C094D2069AB68984718B1084BAB
:103EB00008485B689847084AEB6820690021116050
:103EC000BDE87040184700BFC8000020B8000020BF
:103ED000940000206C6C0000E0160020F8B51A4D2C
:103EE0001A4E0446B26828699047E8B9184F3B68F3
:103EF0004CB1A3B1012B19D0013B3B602869F36899
:103F000098470020F8BD43B9124A0121C2F80015B4
:103F10001149D1F81029002AFBD101333B60F36825
:103F2000286998470020F8BD0C48F8BD0A4AD2F825
:103F30001039002BFBD1074A6FF07E40C2F80035E4
:103F4000FFF748FF3B68D7E7C8000020B800002013
:103F5000E016002000A0025000B00250E98FFFFFE1
:103F600010B5044650B1636813F0685F05D0064A87
:103F7000934202D000232360626010BD034B0448CB
:103F80005B689847EFE700BF2C5F5CA994000020B6
:103F90008C6C0000C8B143680D4A934213D013F0F3
:103FA000685F0ED0012350E8002F194640E8001C3E
:103FB0009CF0000FF7D1012AF5D0BFF35F8F0020EE
:103FC000704704487047044870476FF4E0407047FA
:103FD0002C5F5CA9E98FFFFFEA8FFFFF80B1436888
:103FE000094A93420AD013F0685F05D0BFF35F8F90
:103FF0000023036018467047044870470448704720
:104000006FF4E040704700BF2C5F5CA9E98FFFFFB1
:10401000EA8FFFFF10B5044620B1044B6360002215
:10402000226010BD0248FFF771FEF6E73A00003A41
:10403000B46C000030B10268034B04489A4208BFD8
:104040000020704702487047DD55AABB8208F00087
:104050007108F00038B50D460446B0B1A022002129
:10406000043002F09FFB95B10822294604F1640058
:1040700002F09EFB082205F1200104F1840002F009
:1040800097FB044B2360002038BD0348FCE703483E
:10409000FAE700BFDD55AABB7108F0008308F00005
:1040A0002DE9F74305460E4699461146FFF7C2FF34
:1040B0000446002840F08480002E00F0858000290E
:1040C00000F08480B9F1200F40F0828005F14404B3
:1040D000082205F10408204602F06AFB05F12407D6
:1040E00008223146404602F063FB06F12001082217
:1040F000384602F05DFB02A94FF4807041F8049D40
:1041000002F04AFB002865D1334A4FF480731360F4
:10411000012193600823314A00F02EFB012108465B
:1041200005232F4A00F028FB0823424601211C20CA
:1041300000F022FB08233A460121032000F01CFB7B
:10414000224608230121022000F016FB0823254AFD
:1041500001211A2000F010FB0523234A01211B2016
:1041600000F00AFB0823214A0121142000F004FB7F
:1041700008231F4A0121152000F0FEFA082305F14B
:1041800064020121162000F0F7FA082305F18402E9
:104190000121172000F0F0FA0823164A01210B2014
:1041A00000F0EAFA00F044FB0446019800F0D2FA6D
:1041B000114B002C18BF1C46A421284602F0F4FA2B
:1041C000204603B0BDE8F0830C4CF9E70C4CF7E750
:1041D0000C4CF5E7084CEFE790B00250186D00006A
:1041E000906D0000D86C00007C6D00003C6D0000FC
:1041F0005C6D0000F86C00008408F0007608F000A8
:104200008008F0008108F0000C4BC2691A608269D6
:1042100043F8042C426943F8082C026943F80C2C3B
:10422000C26843F8102C826843F8142C426843F8A3
:10423000182C026843F81C2C704700BF5CB6025073
:104240000C4B1B68C3610C4B1B6883610B4B1B68D9
:1042500043610B4B1B6803610A4B1B68C3600A4B2D
:104260001B688360094B1B684360094B1B68036034
:10427000704700BF5CB6025058B6025054B60250A8
:1042800050B602504CB6025048B6025044B60250E6
:1042900040B6025030B10268034B04489A4208BF4E
:1042A0000020704702487047DD55AABB0202F000AB
:1042B0000002F00038B5044668B1051D702128469B
:1042C00002F072FA28462022044902F069FA044BEF
:1042D0002360002038BD0348FCE700BFA46D000048
:1042E000DD55AABB0002F0002DE9F043284B04463F
:1042F0000E4615460FCB85B06F4687E80F002DB9E7
:104300004FF00009484605B0BDE8F0832046FFF7AE
:10431000C1FF81460028F5D1231D0193636AA3BB29
:10432000236F8BB1C3F14008A84528BFA84604F10C
:10433000300031461844424602F032FA236F4344BB
:1043400046442367A5EB0805226F402A06D104F1F5
:104350003001384600F0AEFB0023236705F03F082C
:1043600035F03F0505D031462A46384600F0A2FB1D
:104370002E44B8F1000FC3D04246314604F130005C
:1043800002F00EFAC4F87080BCE7DFF80890B9E7D5
:10439000306A00000C02F0002DE9FF41144B044686
:1043A0000E460FCB6F4687E80F002046FFF772FFDF
:1043B0008046B0B9CEB1636A251D01953BB9012392
:1043C0006362226F04F13001384600F073FB2B4624
:1043D000043E243453F8042B12BAA34246F8042FA7
:1043E000F8D1404604B0BDE8F081DFF80880F8E776
:1043F000306A00000502F000084B1B681B0EF02B12
:1044000008D1074B1A68074B9A4205D1064B00208A
:1044100018607047052070470620704728B9025081
:1044200024BA02500000E0200CBA0250002230B53D
:1044300049001346023840F6FC7502F1A05404F519
:104440002C44A400904202F10102CABF23602560FF
:104450005B181E2AF1D1044A13600B445360034BCE
:10446000034A1A6030BD00BF78B0025084B00250D9
:1044700020F80F0030B51E4B85B01A461968009120
:104480000099CC07FAD500F1A05000F52C4080002F
:10449000016813680193019BD807FAD5154B164C98
:1044A0001868164D1F30202390FBF3F001380028C8
:1044B00010DA00230130400153B1A0F120014FF088
:1044C0000042134204D1013888424FEA5202F8D127
:1044D00005B030BD13680393039BDB07FAD543187F
:1044E00023602B680293029B002BE3D10138DEE7A7
:1044F000B4B00250ACB00250E4B00250DCB0025094
:10450000F0B51D6885B001F01F040DB91F2C25D131
:10451000154D2E462F680197019FFF07FAD500F130
:10452000A05000F52C408000006835680395039D7D
:10453000ED07FAD50D4D00EB611028600C480068BE
:1045400002901F2C18BFC94302980FBF106001F0E2
:104550001F0100FA01F11160002119601068430089
:10456000C00F136005B0F0BDB4B00250E4B002500B
:10457000DCB002500C4B18603F3020F03F00890146
:10458000403058609960D9601961596199611C3354
:104590000648196082B002680192019AD207FAD5E2
:1045A000196002B0704700BF90B00250B4B0025022
:1045B00038B5A0F12003B3F5426F05462CD88F28FB
:1045C00026D800F1470300F16604DB064FEA5414D5
:1045D00000D0013464013F34A409013411B1A14277
:1045E0001AD30C46E3004FF48050B0FBF3F02028C0
:1045F00028BF202002B11060084B01221A6021461A
:10460000FFF714FF28462146FFF7B4FF002038BD0E
:1046100000F11F046409DDE70148F8E71CB8025007
:104620002221F000F0B5454B89B01D461C6801946D
:10463000019CE407FAD5424BDFF80CE1DFF80CC12E
:1046400013449B0000241A680B181E2B88BFC0F16E
:104650001E011F320B1852095343B3F5806F82BFFE
:104660004FF48061B1FBF2F1091A00F1A05000F59E
:104670002C402746A14233DC2B680493049BDB07C4
:10468000FAD5304B1B68296805910599CF07FAD5F3
:104690002D4C2E49236000231E46934203F1010056
:1046A00040D120F001022948194600268A423CD810
:1046B000296806910699CE07FAD525490968286820
:1046C00007900798C007FAD52160204800210C46C2
:1046D0008B422DD11D4900209A422CD809B0F0BD43
:1046E0002B680293029BDB07FAD503199B001B681A
:1046F0002E680396039EF607FAD5CEF80030002305
:10470000934203F1010306D1164623F00103B3429D
:1047100004D80134AEE7CCF80070F1E7CCF80070B3
:104720000136F4E70E600346B7E706600131BDE7E6
:1047300004600131CCE708600133CDE7B4B002502A
:1047400024AC00147CB00250D4B00250D8B0025057
:1047500078B0025008B540B1202801464FF007025A
:1047600028BF20210020FFF75DFF024B00221A60C6
:1047700008BD00BF1CB80250F0B5294D85B02C46CD
:104780002E680096009EF607FAD500F1A05000F5BD
:104790002C4080000568206801900198C707FAD571
:1047A0002048214F056002EB8306B24229D15A1CF2
:1047B0001D4E22F0010200279A4227D82368029357
:1047C000029BDE07FAD5194B0B449B001B681F3375
:1047D0005B099A4213D2216803910399C907FAD55C
:1047E000154400219B1A104A056008468B4210D8D8
:1047F0005A1C0D4922F0010200209A420CD805B043
:10480000F0BD52F804CBC7F800C0CEE737600133E3
:10481000D2E710600131E9E708600133EDE700BF3E
:10482000B4B00250D4B00250D8B0025024AC00143E
:104830002DE9F041814B1D6898682033A0B01E46D9
:104840001A680192019AD707FAD57D4B7D4A1A6002
:1048500032680292029AD407FAD57B4A1A607B4AE0
:104860001446116803910399C907FAD5784A11686B
:10487000C1F3402137680497049FFF07FAD5754FAD
:104880001F6027680597059FFF07FAD5176800295D
:1048900000F0CF80B90540F1CC80316806910699CF
:1048A000CF07FAD56C491960216807910799C907A4
:1048B000FAD51168C1F3402137680897089FFF07B0
:1048C000FAD5664F1F6027680997099FFF07FAD539
:1048D0001268002900F0AF80910540F1AC80326889
:1048E0000A920A9AD207FAD5564A1A6032680B928F
:1048F0000B9AD707FAD55A4A1A6031680C910C996D
:10490000CC07FAD55749196031680D910D99C9073F
:10491000FAD55549196031680E910E99CF07FAD52D
:104920005249196031680F910F99CC07FAD5504957
:104930001960504B1E46196810911099C907FAD595
:104940003F4C4D4B236033681193119BDB07FAD525
:104950004A4B236033681293129BDF07FAD5484B0A
:1049600023603A4B9846196813911399C907FAD5F1
:10497000324F386033681493149BDB07FAD52260FA
:1049800033681593159BD807FAD53E4B23603368DF
:104990001693169BD907FAD53B4B236033681793C0
:1049A000179BDA07FAD5394B236033681893189BA5
:1049B000DB07FAD5364B236033681993199BD80768
:1049C000FAD5344B236033681A931A9BD907FAD56A
:1049D000314B236033681B931B9BDA07FAD52F4BAF
:1049E000236000F01DFC08BBD8F800301C931C9B12
:1049F000DB07F9D53D6033681D931D9BD907FAD5B8
:104A0000274B236033681E931E9BDA07FAD5254B8C
:104A10002360D8F800301F931F9BDB07F9D50C4BA0
:104A20001B6813F4805F204B08BF184620B0BDE818
:104A3000F0811E48FAE71E48F8E700BF90B0025028
:104A400080B0025000100251C01F7229B4B0025051
:104A500088B00250C0CF0129C01F0E29C03F0029D5
:104A600040010249003184A800001649400108A114
:104A700080440888B0B00250C044708880077A41F2
:104A8000C0077E4100006A498006164940006E4911
:104A900000020021008220214082202180822421E6
:104AA00040A161A100C861510308F1000108F100B3
:104AB0000208F1002DE9F74F314B446880469246D9
:104AC00099461A68002AFCD12E4B9B461A68002A88
:104AD000FCD14FF0FF30019100F094FC802000F0F9
:104AE00097FC294D294A2A4F2A4E012307202B6083
:104AF000A2F59E72C2F83C011360636A3B60A36A30
:104B00003360D8F8003042F8043CD8F8083020462A
:104B100098470199D9F80030002BFBD1BAF1000F6A
:104B200020D11D4B04221A60D9F80030002BFBD194
:104B3000DBF800A0BAF1000FFAD1D8F80C3020460B
:104B400098473B6863623368A362144BC3F800A0C4
:104B5000C3F844A1D9F80030002BFBD12B6003B07F
:104B6000BDE8F08F236A012B04BF0C4A13600C4B85
:104B700040201960C3F804A000F050FCD4E700BF47
:104B800010B9025020BC025018B8025000B90250AF
:104B9000CCB70250D0B70250C8B7025084B602500A
:104BA00028BC025010B5544B98B019461A680192AF
:104BB000019AD207FAD5514B514A1A600A680292FB
:104BC000029AD407FAD54F4A1A600A680392039AE8
:104BD000D007FAD54C4818600A680492049AD207A4
:104BE000FAD54A4A1A600A680592059AD407FAD596
:104BF000474A1A600A680692069AD207FAD5454AC9
:104C00001A600A680792079AD407FAD5424A1A60CE
:104C10000A680892089AD207FAD5404A1A600A68C8
:104C20000992099AD407FAD53D4A1A600A680A928D
:104C30000A9AD207FAD53B4A1A600A680B920B9A75
:104C4000D407FAD5384A1A600A680C920C9AD2072F
:104C5000FAD5364A1A600A680D920D9AD407FAD529
:104C6000334A1A600A680E920E9AD207FAD5314A70
:104C70001A600A680F920F9AD407FAD52E4A1A6062
:104C80000A681092109AD207FAD52C4A1A601A4B69
:104C900019461C681194119CE407FAD5174B18604B
:104CA000086812901298C407FAD51A600A6813921D
:104CB000139AD007FAD5124A1A600A681492149A05
:104CC000D207FAD51E4A1A600A681592159AD407B7
:104CD000FAD51C4A1A600A681692169AD007FAD5B5
:104CE000194A1A600A681792179AD207FAD5174A12
:104CF0001A6018B010BD00BFB0B0025080B00250B2
:104D000000936521000431904096659000836121F5
:104D100000C3302100C364900081619000461021DF
:104D2000008111210041442100C320290C4610C8F4
:104D30000086312100C3602140C1282940966521A9
:104D40000013319040962529594614C84004324931
:104D500010B5494B94B019461A680092009AD207D0
:104D6000FAD5464B464A1A600A680192019AD4075E
:104D7000FAD5444A1A600A680292029AD007FAD514
:104D8000414818600A680392039AD207FAD53F4A4D
:104D90001A600A680492049AD407FAD53C4A1A6049
:104DA0000A680592059AD207FAD53A4A1A600A6843
:104DB0000692069AD407FAD5374A1A600A6807920B
:104DC000079AD207FAD5354A1A600A680892089AF3
:104DD000D407FAD5324A1A600A680992099AD207AA
:104DE000FAD5304A1A600A680A920A9AD407FAD5A4
:104DF0002D4A1A600A680B920B9AD207FAD52B4AF1
:104E00001A600A680C920C9AD407FAD5284A1A60DC
:104E10000A680D920D9AD207FAD5264A1A600A68D6
:104E20000E920E9AD407FAD5234A1A600A680F9296
:104E30000F9AD207FAD5214A1A600F4B19461C68FF
:104E40001094109CE407FAD50C4B18600868119078
:104E50001198C407FAD51A600A681292129AD007FC
:104E6000FAD5174A1A600A681392139AD207FAD52C
:104E7000144A1A6014B010BDB0B0025080B0025095
:104E800080906521000409904096659080806121A2
:104E900080200821802064900081619000461021CC
:104EA000008111210041442180202029024610C8A0
:104EB0000086092180206021402128294096652113
:104EC00040962529594614C810B5504B96B01C463B
:104ED0001A680192019AD207FAD54D4B4D4A1A60D1
:104EE00022680292029AD207FAD54B4A1A604B4ABC
:104EF00042EA804022680392039AD207FAD51860EA
:104F000022680492049AD007FAD5454A1A60A2F59D
:104F1000800242EA814122680592059AD207FAD5B9
:104F2000196022680692069AD007FAD53D4A1A609F
:104F300022680792079AD107FAD53B4A1A6022687D
:104F40000892089AD207FAD5384A1A60226809925C
:104F5000099AD007FAD5364A1A6022680A920A9A44
:104F6000D107FAD5334A1A6022680B920B9AD207FE
:104F7000FAD5314A1A6022680C920C9AD007FAD5F9
:104F80002E4A1A6022680D920D9AD107FAD52C4A42
:104F90001A6022680E920E9AD207FAD5294A1A6030
:104FA00022680F920F9AD007FAD5274A1A60216813
:104FB00010911099C907FAD51A60144B1A4619684E
:104FC00011911199C807FAD5114B20491960116840
:104FD00012911299C907FAD51D49196011681391E8
:104FE0001399CC07FAD50B491960116814911499DB
:104FF000C807FAD517491960116815911599C9079D
:10500000FAD5154A1A6016B010BD00BFB0B00250F4
:1050100080B002504004419000862929D81001C870
:1050200040144190401421294014652100344090DF
:1050300000310C90C0400C90C030202940960D905B
:1050400000416090031645C800861121004160218F
:10505000594644C84014459040142D9070B52648D8
:1050600088B0054604680094009CE607FAD52348FA
:10507000234C0460234C44EA83432C680194019C34
:10508000E407FAD50360930143EA824242F01044F8
:1050900044F4C0442B680293029BDE07FAD50460F7
:1050A0002B680393039BDB07FAD5174B03608B0137
:1050B00043EA814141F0104343F4C0432E68049613
:1050C000049EF607FAD503602B680593059BDE075F
:1050D000FAD5046041F058412B680693069BDC0723
:1050E000FAD5016042F058422B680793079BDB0713
:1050F000FAD5026008B070BDB0B0025080B0025066
:10510000C02102298071009880611890354B8EB0C3
:1051100019461A680092009AD207FAD5324B334AE0
:105120001A600A680192019AD007FAD5304A1A60CB
:105130000A680292029AD207FAD52E4A1A600A68C1
:105140000392039AD007FAD52B4A1A600A68049290
:10515000049AD207FAD5294A1A600A680592059A74
:10516000D007FAD5264A1A600A680692069AD2072C
:10517000FAD5244A1A600A680792079AD007FAD526
:10518000214A1A600A680892089AD207FAD51F4A7B
:105190001A600A680992099AD007FAD51C4A1A605F
:1051A0000A680A920A9AD207FAD51A4A1A60086857
:1051B0000B900B98C007FAD51A600A680C920C9AEB
:1051C000D007FAD5144A1A600A680D920D9AD207D0
:1051D000FAD5124A1A600E210D230F2200200EB0BC
:1051E000FFF73CBFB0B0025080B0025080430129AD
:1051F00040633921807001298020542100D13490EE
:10520000C0403490C0302029C0530D9000413890E8
:10521000832308C880E3102100413821CF4308C808
:105220002DE9F041012392B0CDE90333624B1D46D5
:105230001A680592059AD207FAD5604C604B236034
:10524000604B19461A680692069AD707FAD55E4B44
:105250001A68D60400F1A8802A680792079AD00736
:10526000FAD55A4A22600A680892089AD207FAD5F3
:105270001E68C6F30036002E40F098801220FFF71B
:10528000F9F807461320FFF7F5F887428CBF122084
:105290001320FFF7EFF8471EFFF738FF03AB01AA13
:1052A00039461220FFF72CF904AB804602AA394692
:1052B0001320FFF725F900EB4800022832D003281D
:1052C0003ED0012874D12B680993099BDB07FAD5DE
:1052D0003F4B23602B680A930A9BD807FAD53D4BB6
:1052E00023602B680F930F9BD907FAD53A4B2360A5
:1052F0002B681093109BDA07FAD5384B23602B6884
:105300001193119BDB07FAD5354B2360013F25D55F
:105310001023192218210020FFF7A0FE304612B0FA
:10532000BDE8F0812B680B930B9BD907FAD52D4B69
:1053300023602B680C930C9BDA07FAD52A4BCFE736
:105340002B680D930D9BDB07FAD5284B23602B6848
:105350000E930E9BD807FAD5254BC1E703AB01AAE4
:1053600039461220FFF7CCF804AB044602AA3946AE
:105370001320FFF7C5F810EB440402D1FFF712FC2D
:10538000C4E7FFF7E5FC022C08D0032C09D0012C60
:1053900010D117211620FFF797FDB7E7152114202C
:1053A000F9E70F210E20F6E7124EB7E7124EB5E7E8
:1053B000124EB3E7124EB1E7B0B0025080B00250C7
:1053C00000084A51B4B0025088B0025000084E5153
:1053D00000065A4940065E49000442410014424911
:1053E00040042E49000652494006564900063A49F3
:1053F00040063E490608F1000708F1000408F100E4
:105400000508F100014B1860704700BF08BA025050
:10541000014B1860704700BF04BA0250034A13687A
:105420001842FCD0024A10601846704700BA025079
:1054300008BA0250704708B9086070476FF015004D
:105440007047084629B101290CBF08466FF01500C6
:105450007047032070470020704770472DE9F743DD
:105460000E4617469946044628B94FF0FF38404685
:1054700003B0BDE8F0830029F7D0002AF5D0CB684F
:105480000D891D4404230DEB03022946384600F024
:10549000CAFC80460028E8D1BDF80410738946F69E
:1054A0000812914225D1BDF806109942DDD104239E
:1054B0000DEB03022944384600F0B5FC0028D4D196
:1054C000BDF8042046F607139A42CED1C4E900671E
:1054D0009DF82830A4F80890A3727389BDF80620BF
:1054E0002B44E360738913442B44043563612561C5
:1054F000BDE7002BE4D0B8E72DE9F3410E4617468F
:105500001D46044620B94FF0FF3002B0BDE8F081DF
:105510000368002BF7D04368002BF4D04FF6FF78D8
:10552000D4E904239A4216D223685B8923B1E36845
:10553000934204BF043323610423216960680DEBA7
:10554000030200F070FC0028DDD1A37A2BB1D4E96E
:1055500003329A4201D30120D7E72389BDF8061010
:10556000434501F1040203D0BDF804C09C450BD1B2
:1055700015B1BDF804302B802369043333603980C2
:10558000236913442361C0E7236913442361C7E7F8
:1055900073B50C4606461146022301AA204600F0C8
:1055A000D9FA0546E8B9019A1F2A0ED92368A2F153
:1055B000200119442022304600F0DFFC2368019AC4
:1055C00013442360284602B070BD0146C2F1200298
:1055D000304600F0DDFC019A2168C2F12000304421
:1055E000EAE76FF00205EDE700F0A0BC4FF440736E
:1055F0005843303070470B7803F0FD03012B0CBF8C
:105600004FF440704FF0FF30704710B5044600F083
:105610004AFCA3684FF44072303B02FB103010BDCF
:105620008168183921F007010122083900F062BFB2
:1056300013B50446019100F0EEFE0423A0F1080129
:105640000DEB0302204600F029FF02B010BD07B5A4
:10565000FFF7DBFF6946FAF799FD18B9009803B028
:105660005DF804FB0020FAE770B513460E461546B8
:10567000002102460446FBF763F950B92B4604F1BA
:105680002C0201212046FBF75BF910B1002E08BF68
:10569000002070BD73B5044600200D461646FFF786
:1056A000D0FE6946C0B2FBF727FC30BB2C2303FBBE
:1056B00005440098E36825891D4404230DEB03028B
:1056C000294600F0B0FBC0B9BDF8042064890098F9
:1056D00046F608139A4215D1BDF806309C420CD10B
:1056E00004230DEB0302611900F09DFB28B9BDF8FE
:1056F000042046F607139A4207D0009800F092FB68
:1057000002B070BD002CF2D0F7E7BDF806102144BE
:1057100029443160F1E737B50446426A4FF4807599
:1057200001A903200195FBF70FFC58B9019B226DDD
:10573000A36201A901200195FBF706FC054628B1EB
:10574000092500E00125284603B030BD019B206AF1
:10575000636500F0A8FBE065F5E70123036003F152
:10576000012343600023C0E9023370474379012BD2
:1057700007D10368012B04D10079431E58425841D8
:105780007047002070477FB506460D46032001A9EB
:10579000FBF7B2FB38BB0198FFF737FFF16D04460A
:1057A000284600F033F90444019800F07CFB0646DB
:1057B000019800F07FFB082201460DEB020000F08B
:1057C000E7FB2B798DF8083021460198334602AA71
:1057D00000F03EFB041E019818BF012400F022FBDC
:1057E000204604B070BD0124FAE700F046BB2DE965
:1057F000F8430E46002107460846FFF722FE012126
:1058000004460020FFF71DFE3378A34220D08342D8
:1058100020D101252C2303FB0575F86DAC6AFFF739
:10582000E5FE013C804600276B6A03EBC40253F897
:105830003410D2F804901B684A46C91A30464F44C7
:10584000FFF7D3FFB84504F1FF34EDD8BDE8F88386
:105850000025DFE70120F9E737B515460C460120A2
:10586000694600F05EFEE979012903D00022204656
:1058700000F06BFE9DF80330012B02D1204600F0B2
:1058800043FEA9682046FFF7D3FE2046FCF792FFAF
:10589000002003B030BD73B50D46064600F0F2F8A7
:1058A0000446E86058B302282ED101A90320FBF773
:1058B00023FB58BB01982A46314600F059F80446AC
:1058C000D0B9019800F0A7FD012301460DF10302B4
:1058D000019800F0A8FA0446A0B9019801220DF140
:1058E000030100F0ACFD10B101238DF803309DF8E9
:1058F000033003F00F03EB71019800F093FA204698
:1059000002B070BD0124F7E70724F8E70124F6E7A9
:1059100013B5032001A9FBF7EFFA48B90198FFF787
:105920007FFE0446019800F07DFA204602B010BDCB
:105930000124FAE71FB5032001A9FBF7DDFAA8B996
:10594000019802A9FCF756FF044668B99DF80B3090
:10595000032B03D1019800F0D7FD0446019800F015
:1059600061FA204604B010BD0124F7E70124F8E7EE
:105970002DE9F34707460C46014600201646FFF77F
:105980003AFE051E3EDB3846E46DFFF73EFE5FFA49
:1059900084F96B1E09FB03084FF0FF3465B9631CE3
:1059A00006D0FF2C22DC013440F201133460B380B6
:1059B000284602B0BDE8F08701230DF107024146F9
:1059C000384600F030FA002805F1FF3A1CDB0122CE
:1059D0000DF10701384600F032FD18B9B4F1FF3F70
:1059E00008BF2C46A8EB09085546D7E70223A4F5C3
:1059F00080747371631004F0010401330134336067
:105A00003471D5E70725D3E70125D1E710B54379F0
:105A10000279012B14BF0B02002302F1FF3201FBBC
:105A20000233026814BF4C000C46013A04FB0230FA
:105A300010BD30B5826A446D944202D0631C93421B
:105A40001CD1B2F5807F19D800231946A34209D191
:105A5000934215D2426A02EBC3035868431A584274
:105A6000584130BD416A056D01EBC30105EBC3052B
:105A700049686D688D4201D10133E7E70020F0E706
:105A80000120EEE71FB50320694600F04AFD02A998
:105A9000012000F046FD9DF800309DF80800012B24
:105AA0000AD19DF80230032B06D1013818BF01201E
:105AB000400005B05DF804FB0020FAE770B503680C
:105AC000CD1A002D02DC6FF05F0070BD93F900600D
:105AD0001C78002E0ADB5C1C04601B7813600368D2
